{
  "contractName": "HouseInfo",
  "abi": [
    {
      "constant": true,
      "inputs": [
        {
          "name": "",
          "type": "uint256"
        }
      ],
      "name": "houseDatas",
      "outputs": [
        {
          "name": "houseDetailHash",
          "type": "string"
        },
        {
          "name": "status",
          "type": "uint8"
        },
        {
          "name": "index",
          "type": "uint256"
        }
      ],
      "payable": false,
      "stateMutability": "view",
      "type": "function"
    },
    {
      "constant": true,
      "inputs": [],
      "name": "owner",
      "outputs": [
        {
          "name": "",
          "type": "address"
        }
      ],
      "payable": false,
      "stateMutability": "view",
      "type": "function"
    },
    {
      "constant": true,
      "inputs": [],
      "name": "showHouseInfoCount",
      "outputs": [
        {
          "name": "",
          "type": "uint256"
        }
      ],
      "payable": false,
      "stateMutability": "view",
      "type": "function"
    },
    {
      "constant": true,
      "inputs": [],
      "name": "houseInfoTotal",
      "outputs": [
        {
          "name": "",
          "type": "uint256"
        }
      ],
      "payable": false,
      "stateMutability": "view",
      "type": "function"
    },
    {
      "constant": true,
      "inputs": [
        {
          "name": "",
          "type": "address"
        },
        {
          "name": "",
          "type": "uint256"
        }
      ],
      "name": "landlordHouse",
      "outputs": [
        {
          "name": "houseDetailHash",
          "type": "string"
        },
        {
          "name": "status",
          "type": "uint8"
        },
        {
          "name": "index",
          "type": "uint256"
        }
      ],
      "payable": false,
      "stateMutability": "view",
      "type": "function"
    },
    {
      "inputs": [],
      "payable": false,
      "stateMutability": "nonpayable",
      "type": "constructor"
    },
    {
      "constant": false,
      "inputs": [
        {
          "name": "_status",
          "type": "uint256"
        },
        {
          "name": "_index",
          "type": "uint256"
        }
      ],
      "name": "updateHouseStatus",
      "outputs": [],
      "payable": true,
      "stateMutability": "payable",
      "type": "function"
    },
    {
      "constant": false,
      "inputs": [
        {
          "name": "hash",
          "type": "string"
        }
      ],
      "name": "addHouseInfo",
      "outputs": [],
      "payable": true,
      "stateMutability": "payable",
      "type": "function"
    },
    {
      "constant": true,
      "inputs": [],
      "name": "getLandlordHouseLength",
      "outputs": [
        {
          "name": "",
          "type": "uint256"
        }
      ],
      "payable": false,
      "stateMutability": "view",
      "type": "function"
    },
    {
      "constant": true,
      "inputs": [
        {
          "name": "_index",
          "type": "uint256"
        }
      ],
      "name": "getLandlordHouseInfo",
      "outputs": [
        {
          "name": "",
          "type": "string"
        },
        {
          "name": "",
          "type": "uint256"
        },
        {
          "name": "",
          "type": "uint8"
        }
      ],
      "payable": false,
      "stateMutability": "view",
      "type": "function"
    },
    {
      "constant": true,
      "inputs": [
        {
          "name": "_from",
          "type": "uint256"
        },
        {
          "name": "_to",
          "type": "uint256"
        }
      ],
      "name": "getHouseData",
      "outputs": [
        {
          "name": "",
          "type": "bytes"
        }
      ],
      "payable": false,
      "stateMutability": "view",
      "type": "function"
    }
  ],
  "bytecode": "0x608060405234801561001057600080fd5b506000600281905560035560018054600160a060020a0319163317905561113b8061003c6000396000f3006080604052600436106100a35763ffffffff7c010000000000000000000000000000000000000000000000000000000060003504166361a4fb7181146100a857806381b784ce146101545780638da5cb5b146101e4578063a06a2bfd14610222578063b496b0d514610232578063d83e39d414610259578063e176a9b01461026e578063f65a28d014610283578063f7785ee9146102b4578063f9d9461814610300575b600080fd5b3480156100b457600080fd5b506100c060043561036e565b60405180806020018460028111156100d457fe5b60ff168152602001838152602001828103825285818151815260200191508051906020019080838360005b838110156101175781810151838201526020016100ff565b50505050905090810190601f1680156101445780820380516001836020036101000a031916815260200191505b5094505050505060405180910390f35b34801561016057600080fd5b5061016f60043560243561042f565b6040805160208082528351818301528351919283929083019185019080838360005b838110156101a9578181015183820152602001610191565b50505050905090810190601f1680156101d65780820380516001836020036101000a031916815260200191505b509250505060405180910390f35b3480156101f057600080fd5b506101f961061e565b6040805173ffffffffffffffffffffffffffffffffffffffff9092168252519081900360200190f35b61023060043560243561063a565b005b34801561023e57600080fd5b5061024761096b565b60408051918252519081900360200190f35b34801561026557600080fd5b5061024761097f565b34801561027a57600080fd5b50610247610985565b34801561028f57600080fd5b506100c073ffffffffffffffffffffffffffffffffffffffff6004351660243561098b565b6040805160206004803580820135601f8101849004840285018401909552848452610230943694929360249392840191908190840183828082843750949750610a149650505050505050565b34801561030c57600080fd5b50610318600435610b40565b604051808060200184815260200183600281111561033257fe5b60ff16815260200182810382528581815181526020019150805190602001908083836000838110156101175781810151838201526020016100ff565b600480548290811061037c57fe5b60009182526020918290206003919091020180546040805160026001841615610100026000190190931692909204601f8101859004850283018501909152808252919350918391908301828280156104155780601f106103ea57610100808354040283529160200191610415565b820191906000526020600020905b8154815290600101906020018083116103f857829003601f168201915b505050506001830154600290930154919260ff1691905083565b6060806060600080600087101580156104485750868610155b801561045657508560035410155b15156104ac576040805160e560020a62461bcd02815260206004820152600c60248201527fe4bca0e58f82e69c89e8afaf0000000000000000000000000000000000000000604482015290519081900360640190fd5b6003546040519080825280602002602001820160405280156104e257816020015b60608152602001906001900390816104cd5790505b50925060009150600090505b60045481101561060857600480548290811061050657fe5b6000918252602091829020600390910201805460408051601f60026000196101006001871615020190941693909304928301859004850281018501909152818152928301828280156105995780601f1061056e57610100808354040283529160200191610599565b820191906000526020600020905b81548152906001019060200180831161057c57829003601f168201915b50939750600193506105aa92505050565b60048054839081106105b857fe5b600091825260209091206001600390920201015460ff1660028111156105da57fe5b1415610600578383838151811015156105ef57fe5b602090810290910101526001909101905b6001016104ee565b610613838888610d09565b979650505050505050565b60015473ffffffffffffffffffffffffffffffffffffffff1681565b610642611055565b60008315806106515750836001145b8061065c5750836002145b15156106b2576040805160e560020a62461bcd02815260206004820152601260248201527fe697a0e8afa5e688bfe6ba90e78ab6e680810000000000000000000000000000604482015290519081900360640190fd5b336000908152602081905260409020548310610718576040805160e560020a62461bcd02815260206004820152601260248201527fe695b0e7bb84e4b88be6a087e8b68ae7958c0000000000000000000000000000604482015290519081900360640190fd5b33600090815260208190526040902080548490811061073357fe5b600091825260209182902060408051600393909302909101805460026001821615610100026000190190911604601f81018590049094028301608090810190925260608301848152929390928492909184918401828280156107d65780601f106107ab576101008083540402835291602001916107d6565b820191906000526020600020905b8154815290600101906020018083116107b957829003601f168201915b5050509183525050600182015460209091019060ff1660028111156107f757fe5b600281111561080257fe5b81526020016002820154815250509150836000141561082d575060038054600019019055600061085f565b8360011415610848575060038054600190810190915561085f565b836002141561085f57506003805460001901905560025b80600281111561086b57fe5b8260200151600281111561087b57fe5b14156108d1576040805160e560020a62461bcd02815260206004820152601a60248201527fe4b88ee5bd93e5898d686f757365e78ab6e68081e4b880e887b4000000000000604482015290519081900360640190fd5b3360009081526020819052604090208054829190859081106108ef57fe5b906000526020600020906003020160010160006101000a81548160ff0219169083600281111561091b57fe5b0217905550806004836040015181548110151561093457fe5b906000526020600020906003020160010160006101000a81548160ff0219169083600281111561096057fe5b021790555050505050565b336000908152602081905260409020545b90565b60035481565b60025481565b6000602052816000526040600020818154811015156109a657fe5b60009182526020918290206003919091020180546040805160026001841615610100026000190190931692909204601f8101859004850283018501909152808252919450925083918301828280156104155780601f106103ea57610100808354040283529160200191610415565b6040805160608101909152818152600490602081016001815260025460209182015282546001810180855560009485529382902083518051600390930290910192610a6492849290910190611077565b50602082015160018083018054909160ff1990911690836002811115610a8657fe5b0217905550604091820151600290910155336000908152602081815290829020825160608101909352848352925081016001815260025460209182015282546001810180855560009485529382902083518051600390930290910192610af192849290910190611077565b50602082015160018083018054909160ff1990911690836002811115610b1357fe5b02179055506040820151816002015550505060025460010160028190555060035460010160038190555050565b60606000806060610b4f611055565b336000908152602081905260409020548610610bb5576040805160e560020a62461bcd02815260206004820152601260248201527fe695b0e7bb84e4b88be6a087e8b68ae7958c0000000000000000000000000000604482015290519081900360640190fd5b3360009081526020818152604080832080548251818502810185019093528083529193909284015b82821015610ccf5760008481526020908190206040805160038602909201805460026001821615610100026000190190911604601f8101859004909402830160809081019092526060830184815292939092849290918491840182828015610c865780601f10610c5b57610100808354040283529160200191610c86565b820191906000526020600020905b815481529060010190602001808311610c6957829003601f168201915b5050509183525050600182015460209091019060ff166002811115610ca757fe5b6002811115610cb257fe5b815260200160028201548152505081526020019060010190610bdd565b5050505091508186815181101515610ce357fe5b602090810290910181015180516040820151919092015191989097509095509350505050565b6060600081818581838180805b8a861015610dba578c86815181101515610d2c57fe5b906020019060200201519750610d428851610f7f565b965060ff8088161415610d9f576040805160e560020a62461bcd02815260206004820152600860248201527f6c656e213d323535000000000000000000000000000000000000000000000000604482015290519081900360640190fd5b87518760010160ff1601890198508580600101965050610d16565b60009450886040519080825280601f01601f191660200182016040528015610dec578160200160208202803883390190505b5093508b92505b8a831015610f6e578c83815181101515610e0957fe5b906020019060200201519750610e1f8851610f7f565b96508660f860020a028486815181101515610e3657fe5b9060200101907effffffffffffffffffffffffffffffffffffffffffffffffffffffffffffff1916908160001a905350600190940193600091505b8660ff16821015610eeb57816001880360ff160360080260020a8851811515610e9657fe5b0460f860020a028486815181101515610eab57fe5b9060200101907effffffffffffffffffffffffffffffffffffffffffffffffffffffffffffff1916908160001a9053506001948501949190910190610e71565b5060005b8751811015610f63578781815181101515610f0657fe5b90602001015160f860020a900460f860020a028486815181101515610f2757fe5b9060200101907effffffffffffffffffffffffffffffffffffffffffffffffffffffffffffff1916908160001a90535060019485019401610eef565b600190920191610df3565b50919b9a5050505050505050505050565b6000600019821115610f9057600080fd5b60008210158015610fa2575060ff8211155b15610faf57506001611050565b60ff82118015610fc1575061ffff8211155b15610fce57506002611050565b61ffff8210801590610fe3575063ffffffff82105b15610ff057506004611050565b63ffffffff821080159061100b575067ffffffffffffffff82105b1561101857506008611050565b67ffffffffffffffff821080159061103f57506fffffffffffffffffffffffffffffffff82105b1561104c57506010611050565b5060205b919050565b6040805160608181019092529081526020810160008152602001600081525090565b828054600181600116156101000203166002900490600052602060002090601f016020900481019282601f106110b857805160ff19168380011785556110e5565b828001600101855582156110e5579182015b828111156110e55782518255916020019190600101906110ca565b506110f19291506110f5565b5090565b61097c91905b808211156110f157600081556001016110fb5600a165627a7a72305820191ac19763640d0949d8d90333acfb8ca093d94641467011979ce955be95fa360029",
  "source": "pragma solidity ^0.4.0;\n\nimport \"./ArrayStorage.sol\";\ncontract HouseInfo is ArrayStorage{\n    //房源的状态，下架，发布，已出租\n    enum HouseStatus{\n        HiddenHouse, ShowHouse,HasRented\n    }\n    //房源的信息结构，IPFS的Hash值，房源的状态，房源的下标\n    struct HouseDetail {\n        string houseDetailHash;\n        HouseStatus status;\n        uint index;\n    }\n    //用户的房源，根据用户的地址，以数组的形式存储HouseDetail元素\n    mapping(address => HouseDetail[]) public landlordHouse;\n    //发布该合同的用户\n    address public owner;\n    //所有的房源信息数量\n    uint256 public houseInfoTotal;\n    //所有ShowHouse状态的房源\n    uint256 public showHouseInfoCount;\n    //所有的房源信息\n    HouseDetail[] public houseDatas ;\n    constructor() public{\n        houseInfoTotal = 0;\n        showHouseInfoCount = 0;\n        owner = msg.sender;\n    }\n    //更新房源的状态\n    function updateHouseStatus(uint _status,uint _index) public payable{\n        //对存入参数进行筛选\n        require(_status==0||_status==1||_status==2,\"无该房源状态\");\n        require(landlordHouse[msg.sender].length>_index,\"数组下标越界\");\n        HouseDetail memory hoseDetail = landlordHouse[msg.sender][_index];\n        HouseStatus status;\n        if(_status == 0){\n            status = HouseStatus.HiddenHouse;\n            //当用户选择隐藏房源时，ShouwHouse状态的房源数量-1\n            showHouseInfoCount--;\n        }else if(_status == 1){\n            status = HouseStatus.ShowHouse;\n            //当用户选择隐藏房源时，ShouwHouse状态的房源数量+1\n            showHouseInfoCount++;\n        }else if(_status == 2){\n            status = HouseStatus.HasRented;\n            //当用户选择隐藏房源时，ShouwHouse状态的房源数量-1\n            showHouseInfoCount--;\n        }\n        //若用户原房源的状态与更新状态相投，则返回\n        require(hoseDetail.status != status,\"与当前house状态一致\");\n        //修改房东房源状态\n        landlordHouse[msg.sender][_index].status = status;\n        //修改所有房源状态\n        houseDatas[hoseDetail.index].status = status;\n    }\n\n    //添加新的房源\n    function addHouseInfo(string hash) public payable {\n        houseDatas.push(HouseDetail({\n            houseDetailHash:hash,\n            status:HouseStatus.ShowHouse,\n            index:houseInfoTotal\n            }));\n        landlordHouse[msg.sender].push(HouseDetail({\n            houseDetailHash : hash,\n            status : HouseStatus.ShowHouse,\n            index:houseInfoTotal\n            }));\n        houseInfoTotal = houseInfoTotal + 1;\n        showHouseInfoCount = showHouseInfoCount + 1;\n    }\n\n    //获取房东的房源数量\n    function getLandlordHouseLength() public view returns(uint){\n        return landlordHouse[msg.sender].length;\n    }\n\n    //根据下标获取房东的房源信息\n    function getLandlordHouseInfo(uint _index) public view  returns(string,uint,HouseStatus){\n        require(landlordHouse[msg.sender].length>_index,\"数组下标越界\");\n        HouseDetail[] memory houseArr = landlordHouse[msg.sender];\n        HouseDetail memory _houseDetail = houseArr[_index];\n        return (_houseDetail.houseDetailHash,_houseDetail.index,_houseDetail.status);\n    }\n\n    //获取所有的ShowHouse状态的所有房源信息\n    function getHouseData(uint256 _from, uint256 _to) public constant returns(bytes){\n        require(_from >= 0 && _to >= _from && showHouseInfoCount >= _to,\"传参有误\");\n        string memory houseHash;\n        string[] memory houseHashArr = new string[](showHouseInfoCount);\n        uint _int = 0;\n        for(uint256 i=0;i<houseDatas.length;i++){\n            houseHash = houseDatas[i].houseDetailHash;\n            if(houseDatas[i].status == HouseStatus.ShowHouse){\n                houseHashArr[_int]=houseHash;\n                _int++;\n            }\n        }\n        return getAsBytes(houseHashArr,_from,_to);\n    }\n\n}",
  "sourcePath": "/Users/chenqilong/Desktop/MUI/contracts/HouseInfo.sol",
  "compiler": {
    "name": "solc",
    "version": "0.4.24+commit.e67f0147.Emscripten.clang"
  },
  "schemaVersion": "2.0.1",
  "updatedAt": "2018-10-29T03:23:59.305Z"
}