{
  "contractName": "RentContract",
  "abi": [
    {
      "constant": true,
      "inputs": [],
      "name": "pledgeStatus",
      "outputs": [
        {
          "name": "",
          "type": "uint8"
        }
      ],
      "payable": false,
      "stateMutability": "view",
      "type": "function"
    },
    {
      "constant": true,
      "inputs": [],
      "name": "status",
      "outputs": [
        {
          "name": "",
          "type": "uint8"
        }
      ],
      "payable": false,
      "stateMutability": "view",
      "type": "function"
    },
    {
      "constant": true,
      "inputs": [],
      "name": "withDrawCashToTenant",
      "outputs": [
        {
          "name": "",
          "type": "uint256"
        }
      ],
      "payable": false,
      "stateMutability": "view",
      "type": "function"
    },
    {
      "constant": true,
      "inputs": [],
      "name": "nextPayRentDate",
      "outputs": [
        {
          "name": "",
          "type": "uint256"
        }
      ],
      "payable": false,
      "stateMutability": "view",
      "type": "function"
    },
    {
      "constant": true,
      "inputs": [
        {
          "name": "",
          "type": "bytes32"
        }
      ],
      "name": "oraclizeDateValidIds",
      "outputs": [
        {
          "name": "success",
          "type": "bool"
        },
        {
          "name": "stage",
          "type": "uint256"
        }
      ],
      "payable": false,
      "stateMutability": "view",
      "type": "function"
    },
    {
      "constant": true,
      "inputs": [
        {
          "name": "timestamp",
          "type": "uint256"
        }
      ],
      "name": "getHour",
      "outputs": [
        {
          "name": "",
          "type": "uint8"
        }
      ],
      "payable": false,
      "stateMutability": "pure",
      "type": "function"
    },
    {
      "constant": true,
      "inputs": [
        {
          "name": "timestamp",
          "type": "uint256"
        }
      ],
      "name": "getWeekday",
      "outputs": [
        {
          "name": "",
          "type": "uint8"
        }
      ],
      "payable": false,
      "stateMutability": "pure",
      "type": "function"
    },
    {
      "constant": true,
      "inputs": [
        {
          "name": "",
          "type": "uint256"
        }
      ],
      "name": "rentPaymentInfoMapping",
      "outputs": [
        {
          "name": "status",
          "type": "uint8"
        },
        {
          "name": "rentFeeTotal",
          "type": "uint256"
        },
        {
          "name": "createDate",
          "type": "uint256"
        },
        {
          "name": "paymentDate",
          "type": "uint256"
        },
        {
          "components": [
            {
              "name": "fee",
              "type": "uint256"
            },
            {
              "name": "lastMonthMeter",
              "type": "uint256"
            },
            {
              "name": "currentMonthMeter",
              "type": "uint256"
            },
            {
              "name": "currentMothUse",
              "type": "uint256"
            }
          ],
          "name": "waterMeterInfo",
          "type": "tuple"
        },
        {
          "components": [
            {
              "name": "fee",
              "type": "uint256"
            },
            {
              "name": "lastMonthMeter",
              "type": "uint256"
            },
            {
              "name": "currentMonthMeter",
              "type": "uint256"
            },
            {
              "name": "currentMothUse",
              "type": "uint256"
            }
          ],
          "name": "electricityMeterInfo",
          "type": "tuple"
        },
        {
          "name": "processed",
          "type": "bool"
        },
        {
          "name": "ethRentFeeTotal",
          "type": "uint256"
        },
        {
          "name": "oraclizeFee",
          "type": "uint256"
        },
        {
          "name": "rentFeeCash",
          "type": "uint256"
        }
      ],
      "payable": false,
      "stateMutability": "view",
      "type": "function"
    },
    {
      "constant": true,
      "inputs": [],
      "name": "currentStage",
      "outputs": [
        {
          "name": "",
          "type": "uint256"
        }
      ],
      "payable": false,
      "stateMutability": "view",
      "type": "function"
    },
    {
      "constant": true,
      "inputs": [
        {
          "name": "year",
          "type": "uint16"
        },
        {
          "name": "month",
          "type": "uint8"
        },
        {
          "name": "day",
          "type": "uint8"
        },
        {
          "name": "hour",
          "type": "uint8"
        },
        {
          "name": "minute",
          "type": "uint8"
        }
      ],
      "name": "toTimestamp",
      "outputs": [
        {
          "name": "timestamp",
          "type": "uint256"
        }
      ],
      "payable": false,
      "stateMutability": "pure",
      "type": "function"
    },
    {
      "constant": true,
      "inputs": [
        {
          "name": "timestamp",
          "type": "uint256"
        }
      ],
      "name": "getDay",
      "outputs": [
        {
          "name": "",
          "type": "uint8"
        }
      ],
      "payable": false,
      "stateMutability": "pure",
      "type": "function"
    },
    {
      "constant": true,
      "inputs": [
        {
          "name": "",
          "type": "bytes32"
        }
      ],
      "name": "oraclizePriceValidIds",
      "outputs": [
        {
          "name": "success",
          "type": "bool"
        },
        {
          "name": "stage",
          "type": "uint256"
        }
      ],
      "payable": false,
      "stateMutability": "view",
      "type": "function"
    },
    {
      "constant": true,
      "inputs": [
        {
          "name": "",
          "type": "bytes32"
        }
      ],
      "name": "oraclizeNextStage",
      "outputs": [
        {
          "name": "",
          "type": "bool"
        }
      ],
      "payable": false,
      "stateMutability": "view",
      "type": "function"
    },
    {
      "constant": true,
      "inputs": [],
      "name": "withDrawCashToLandlord",
      "outputs": [
        {
          "name": "",
          "type": "uint256"
        }
      ],
      "payable": false,
      "stateMutability": "view",
      "type": "function"
    },
    {
      "constant": true,
      "inputs": [
        {
          "name": "year",
          "type": "uint16"
        },
        {
          "name": "month",
          "type": "uint8"
        },
        {
          "name": "day",
          "type": "uint8"
        },
        {
          "name": "hour",
          "type": "uint8"
        }
      ],
      "name": "toTimestamp",
      "outputs": [
        {
          "name": "timestamp",
          "type": "uint256"
        }
      ],
      "payable": false,
      "stateMutability": "pure",
      "type": "function"
    },
    {
      "constant": true,
      "inputs": [],
      "name": "activeFee",
      "outputs": [
        {
          "name": "",
          "type": "uint256"
        }
      ],
      "payable": false,
      "stateMutability": "view",
      "type": "function"
    },
    {
      "constant": true,
      "inputs": [
        {
          "name": "timestamp",
          "type": "uint256"
        }
      ],
      "name": "getSecond",
      "outputs": [
        {
          "name": "",
          "type": "uint8"
        }
      ],
      "payable": false,
      "stateMutability": "pure",
      "type": "function"
    },
    {
      "constant": true,
      "inputs": [
        {
          "name": "year",
          "type": "uint16"
        },
        {
          "name": "month",
          "type": "uint8"
        },
        {
          "name": "day",
          "type": "uint8"
        }
      ],
      "name": "toTimestamp",
      "outputs": [
        {
          "name": "timestamp",
          "type": "uint256"
        }
      ],
      "payable": false,
      "stateMutability": "pure",
      "type": "function"
    },
    {
      "constant": true,
      "inputs": [],
      "name": "flagCallback",
      "outputs": [
        {
          "name": "",
          "type": "uint256"
        }
      ],
      "payable": false,
      "stateMutability": "view",
      "type": "function"
    },
    {
      "constant": true,
      "inputs": [
        {
          "name": "year",
          "type": "uint16"
        },
        {
          "name": "month",
          "type": "uint8"
        },
        {
          "name": "day",
          "type": "uint8"
        },
        {
          "name": "hour",
          "type": "uint8"
        },
        {
          "name": "minute",
          "type": "uint8"
        },
        {
          "name": "second",
          "type": "uint8"
        }
      ],
      "name": "toTimestamp",
      "outputs": [
        {
          "name": "timestamp",
          "type": "uint256"
        }
      ],
      "payable": false,
      "stateMutability": "pure",
      "type": "function"
    },
    {
      "constant": true,
      "inputs": [
        {
          "name": "timestamp",
          "type": "uint256"
        }
      ],
      "name": "getYear",
      "outputs": [
        {
          "name": "",
          "type": "uint16"
        }
      ],
      "payable": false,
      "stateMutability": "pure",
      "type": "function"
    },
    {
      "constant": true,
      "inputs": [],
      "name": "pledgeCash",
      "outputs": [
        {
          "name": "",
          "type": "uint256"
        }
      ],
      "payable": false,
      "stateMutability": "view",
      "type": "function"
    },
    {
      "constant": true,
      "inputs": [
        {
          "name": "timestamp",
          "type": "uint256"
        }
      ],
      "name": "getMonth",
      "outputs": [
        {
          "name": "",
          "type": "uint8"
        }
      ],
      "payable": false,
      "stateMutability": "pure",
      "type": "function"
    },
    {
      "constant": true,
      "inputs": [
        {
          "name": "year",
          "type": "uint16"
        }
      ],
      "name": "isLeapYear",
      "outputs": [
        {
          "name": "",
          "type": "bool"
        }
      ],
      "payable": false,
      "stateMutability": "pure",
      "type": "function"
    },
    {
      "constant": true,
      "inputs": [
        {
          "name": "year",
          "type": "uint256"
        }
      ],
      "name": "leapYearsBefore",
      "outputs": [
        {
          "name": "",
          "type": "uint256"
        }
      ],
      "payable": false,
      "stateMutability": "pure",
      "type": "function"
    },
    {
      "constant": true,
      "inputs": [
        {
          "name": "month",
          "type": "uint8"
        },
        {
          "name": "year",
          "type": "uint16"
        }
      ],
      "name": "getDaysInMonth",
      "outputs": [
        {
          "name": "",
          "type": "uint8"
        }
      ],
      "payable": false,
      "stateMutability": "pure",
      "type": "function"
    },
    {
      "constant": true,
      "inputs": [],
      "name": "rentFeeCash",
      "outputs": [
        {
          "name": "",
          "type": "uint256"
        }
      ],
      "payable": false,
      "stateMutability": "view",
      "type": "function"
    },
    {
      "constant": true,
      "inputs": [
        {
          "name": "timestamp",
          "type": "uint256"
        }
      ],
      "name": "getMinute",
      "outputs": [
        {
          "name": "",
          "type": "uint8"
        }
      ],
      "payable": false,
      "stateMutability": "pure",
      "type": "function"
    },
    {
      "inputs": [
        {
          "name": "_waterMeter",
          "type": "uint256"
        },
        {
          "name": "_waterFee",
          "type": "uint256"
        },
        {
          "name": "_electricityMeter",
          "type": "uint256"
        },
        {
          "name": "_electricityFee",
          "type": "uint256"
        },
        {
          "name": "_rentFee",
          "type": "uint256"
        },
        {
          "name": "_rentTerm",
          "type": "uint256"
        },
        {
          "name": "_pledgeTotal",
          "type": "uint256"
        },
        {
          "name": "_startTime",
          "type": "uint256"
        },
        {
          "name": "_endTime",
          "type": "uint256"
        },
        {
          "name": "_tenantPublicKey",
          "type": "address"
        },
        {
          "name": "_landlorPublickey",
          "type": "address"
        },
        {
          "name": "_baseInfoJson",
          "type": "bytes"
        }
      ],
      "payable": false,
      "stateMutability": "nonpayable",
      "type": "constructor"
    },
    {
      "payable": true,
      "stateMutability": "payable",
      "type": "fallback"
    },
    {
      "anonymous": false,
      "inputs": [
        {
          "indexed": false,
          "name": "",
          "type": "address"
        },
        {
          "indexed": false,
          "name": "",
          "type": "uint256"
        },
        {
          "indexed": false,
          "name": "",
          "type": "bool"
        },
        {
          "indexed": false,
          "name": "",
          "type": "string"
        }
      ],
      "name": "PayEtherEvent",
      "type": "event"
    },
    {
      "anonymous": false,
      "inputs": [
        {
          "indexed": false,
          "name": "",
          "type": "bytes32"
        },
        {
          "indexed": false,
          "name": "",
          "type": "string"
        },
        {
          "indexed": false,
          "name": "",
          "type": "bool"
        }
      ],
      "name": "OricalizeResponseEvent",
      "type": "event"
    },
    {
      "anonymous": false,
      "inputs": [
        {
          "indexed": false,
          "name": "",
          "type": "address"
        },
        {
          "indexed": false,
          "name": "",
          "type": "uint256"
        },
        {
          "indexed": false,
          "name": "",
          "type": "uint256"
        },
        {
          "indexed": false,
          "name": "",
          "type": "string"
        }
      ],
      "name": "OricalizeLogEvent",
      "type": "event"
    },
    {
      "anonymous": false,
      "inputs": [
        {
          "indexed": false,
          "name": "",
          "type": "address"
        },
        {
          "indexed": false,
          "name": "",
          "type": "uint256"
        },
        {
          "indexed": false,
          "name": "",
          "type": "bool"
        }
      ],
      "name": "RentFeeWithdrawalEvent",
      "type": "event"
    },
    {
      "anonymous": false,
      "inputs": [
        {
          "indexed": false,
          "name": "",
          "type": "address"
        },
        {
          "indexed": false,
          "name": "",
          "type": "uint256"
        },
        {
          "indexed": false,
          "name": "",
          "type": "bool"
        },
        {
          "indexed": false,
          "name": "",
          "type": "string"
        }
      ],
      "name": "PledgeWithdrawalEvent",
      "type": "event"
    },
    {
      "anonymous": false,
      "inputs": [
        {
          "indexed": false,
          "name": "",
          "type": "address"
        },
        {
          "indexed": false,
          "name": "",
          "type": "uint256"
        },
        {
          "indexed": false,
          "name": "",
          "type": "bool"
        },
        {
          "indexed": false,
          "name": "",
          "type": "string"
        }
      ],
      "name": "ActiveWithdrawalEvent",
      "type": "event"
    },
    {
      "anonymous": false,
      "inputs": [
        {
          "indexed": false,
          "name": "",
          "type": "address"
        },
        {
          "indexed": false,
          "name": "",
          "type": "uint8"
        },
        {
          "indexed": false,
          "name": "",
          "type": "bool"
        },
        {
          "indexed": false,
          "name": "",
          "type": "string"
        }
      ],
      "name": "ContractStatusEvent",
      "type": "event"
    },
    {
      "anonymous": false,
      "inputs": [
        {
          "indexed": false,
          "name": "sender",
          "type": "address"
        },
        {
          "indexed": false,
          "name": "rentFeeStatus",
          "type": "uint8"
        },
        {
          "indexed": false,
          "name": "SUCCESS",
          "type": "bool"
        },
        {
          "indexed": false,
          "name": "rentFeeCash",
          "type": "uint256"
        },
        {
          "indexed": false,
          "name": "info",
          "type": "string"
        }
      ],
      "name": "RentFeeStatusEvent",
      "type": "event"
    },
    {
      "anonymous": false,
      "inputs": [
        {
          "indexed": false,
          "name": "",
          "type": "address"
        },
        {
          "indexed": false,
          "name": "",
          "type": "uint8"
        },
        {
          "indexed": false,
          "name": "",
          "type": "bool"
        },
        {
          "indexed": false,
          "name": "",
          "type": "string"
        }
      ],
      "name": "PledgeWithdrawalStatusEvent",
      "type": "event"
    },
    {
      "constant": true,
      "inputs": [],
      "name": "getRentContractInfo",
      "outputs": [
        {
          "name": "_tenantPublicKey",
          "type": "address"
        },
        {
          "name": "_landlorPublickey",
          "type": "address"
        },
        {
          "name": "_baseInfoJson",
          "type": "bytes"
        },
        {
          "name": "_status",
          "type": "uint8"
        },
        {
          "name": "uintArr",
          "type": "uint256[13]"
        }
      ],
      "payable": false,
      "stateMutability": "view",
      "type": "function"
    },
    {
      "constant": false,
      "inputs": [],
      "name": "activeContract",
      "outputs": [],
      "payable": true,
      "stateMutability": "payable",
      "type": "function"
    },
    {
      "constant": false,
      "inputs": [],
      "name": "signatrueContractByTenant",
      "outputs": [],
      "payable": true,
      "stateMutability": "payable",
      "type": "function"
    },
    {
      "constant": false,
      "inputs": [],
      "name": "payPledge",
      "outputs": [],
      "payable": true,
      "stateMutability": "payable",
      "type": "function"
    },
    {
      "constant": false,
      "inputs": [
        {
          "name": "_stage",
          "type": "uint256"
        },
        {
          "name": "_currentWaterMeter",
          "type": "uint256"
        },
        {
          "name": "_currentElectricityMeter",
          "type": "uint256"
        }
      ],
      "name": "generateMeter",
      "outputs": [],
      "payable": false,
      "stateMutability": "nonpayable",
      "type": "function"
    },
    {
      "constant": true,
      "inputs": [
        {
          "name": "index",
          "type": "uint256"
        }
      ],
      "name": "getRentPamentInfo",
      "outputs": [
        {
          "name": "rentFeeInfo",
          "type": "uint256[5]"
        },
        {
          "name": "waterInfo",
          "type": "uint256[4]"
        },
        {
          "name": "electricityinfo",
          "type": "uint256[4]"
        },
        {
          "name": "_status",
          "type": "uint8"
        }
      ],
      "payable": false,
      "stateMutability": "view",
      "type": "function"
    },
    {
      "constant": false,
      "inputs": [
        {
          "name": "_stage",
          "type": "uint256"
        }
      ],
      "name": "payRentFee",
      "outputs": [],
      "payable": true,
      "stateMutability": "payable",
      "type": "function"
    },
    {
      "constant": false,
      "inputs": [
        {
          "name": "_stage",
          "type": "uint256"
        }
      ],
      "name": "withdrawRentFee",
      "outputs": [
        {
          "name": "",
          "type": "bool"
        }
      ],
      "payable": true,
      "stateMutability": "payable",
      "type": "function"
    },
    {
      "constant": false,
      "inputs": [],
      "name": "completedRentFee",
      "outputs": [],
      "payable": true,
      "stateMutability": "payable",
      "type": "function"
    },
    {
      "constant": false,
      "inputs": [
        {
          "name": "_amount",
          "type": "uint256"
        }
      ],
      "name": "judgeWithDrawalPledge",
      "outputs": [],
      "payable": false,
      "stateMutability": "nonpayable",
      "type": "function"
    },
    {
      "constant": false,
      "inputs": [
        {
          "name": "_agree",
          "type": "uint256"
        }
      ],
      "name": "isAgree",
      "outputs": [],
      "payable": false,
      "stateMutability": "nonpayable",
      "type": "function"
    },
    {
      "constant": false,
      "inputs": [],
      "name": "withdrawPledgeToLandlord",
      "outputs": [],
      "payable": true,
      "stateMutability": "payable",
      "type": "function"
    },
    {
      "constant": false,
      "inputs": [],
      "name": "withdrawPledgeToTenant",
      "outputs": [],
      "payable": true,
      "stateMutability": "payable",
      "type": "function"
    },
    {
      "constant": false,
      "inputs": [],
      "name": "withdrawActiveFee",
      "outputs": [],
      "payable": true,
      "stateMutability": "payable",
      "type": "function"
    },
    {
      "constant": false,
      "inputs": [
        {
          "name": "_myid",
          "type": "bytes32"
        },
        {
          "name": "_result",
          "type": "string"
        }
      ],
      "name": "__callback",
      "outputs": [],
      "payable": false,
      "stateMutability": "nonpayable",
      "type": "function"
    },
    {
      "constant": false,
      "inputs": [
        {
          "name": "myid",
          "type": "bytes32"
        },
        {
          "name": "result",
          "type": "string"
        },
        {
          "name": "proof",
          "type": "bytes"
        }
      ],
      "name": "__callback",
      "outputs": [],
      "payable": false,
      "stateMutability": "nonpayable",
      "type": "function"
    }
  ],
  "bytecode": "0x608060405262030d4060055560016006556021805460ff1916905560006034553480156200002c57600080fd5b5060405162005abf38038062005abf83398101604090815281516020830151918301516060840151608085015160a086015160c087015160e08801516101008901516101208a01516101408b01516101608c01516006549a9c999a98999798969795969495939492939192910190620000ae9064010000000062000419810204565b60008054600160a060020a031916736f485c8bf6fc43ea212e93bbf8ce046c7f1cb4751781558c118015620000e3575060008b115b8015620000f0575060008a115b8015620000fd5750600089115b80156200010a5750600088115b8015620001175750600087115b8015620001245750600086115b8015620001315750600085115b80156200013e5750600084115b8015620001535750600160a060020a03831615155b801562000161575060008151115b1515620001cf57604080517f08c379a000000000000000000000000000000000000000000000000000000000815260206004820152601260248201527fe58f82e695b0e5ad98e59ca8e7a9bae580bc0000000000000000000000000000604482015290519081900360640190fd5b600b805460ff1916905560108c905560128b9055601389905560118a9055600d889055620002068564010000000062000659810204565b600e805460ff9290921660ff1990921691909117905560148054601e55600f889055600c879055859055601584905560168054600160a060020a03808616600160a060020a031992831617909255601780549285169290911691909117905580516200027a90601890602084019062000e65565b5060148590556000601c55600654600554880202600402601a556040805161014081019091528060018152602001600d548152602001600081526020016000815260200160806040519081016040528060008152602001601054815260200160105481526020016000815250815260200160806040519081016040528060008152602001601154815260200160115481526020016000815250815260200160001515815260200160008152602001600081526020016000815250602260008201518160000160006101000a81548160ff021916908360038111156200035b57fe5b0217905550602082810151600183015560408084015160028401556060808501516003850155608085015180516004860155808401516005860155808301516006860155810151600785015560a08501518051600886015592830151600985015590820151600a8401550151600b82015560c0820151600c8201805460ff191691151591909117905560e0820151600d820155610100820151600e82015561012090910151600f909101555062000f439a5050505050505050505050565b600054600160a060020a031615806200044f57506000546200044d90600160a060020a03166401000000006200067b810204565b155b156200046c576200046a60006401000000006200067f810204565b505b6000809054906101000a9004600160a060020a0316600160a060020a03166338cc48316040518163ffffffff167c0100000000000000000000000000000000000000000000000000000000028152600401602060405180830381600087803b158015620004d857600080fd5b505af1158015620004ed573d6000803e3d6000fd5b505050506040513d60208110156200050457600080fd5b5051600154600160a060020a03908116911614620005d6576000809054906101000a9004600160a060020a0316600160a060020a03166338cc48316040518163ffffffff167c0100000000000000000000000000000000000000000000000000000000028152600401602060405180830381600087803b1580156200058857600080fd5b505af11580156200059d573d6000803e3d6000fd5b505050506040513d6020811015620005b457600080fd5b505160018054600160a060020a031916600160a060020a039092169190911790555b600154604080517fca6ad1e4000000000000000000000000000000000000000000000000000000008152600481018490529051600160a060020a039092169163ca6ad1e49160248082019260009290919082900301818387803b1580156200063d57600080fd5b505af115801562000652573d6000803e3d6000fd5b5050505050565b60006200066f826401000000006200069a810204565b6040015190505b919050565b3b90565b60006200069464010000000062000853810204565b92915050565b620006a462000eea565b6000808080620006bd8664010000000062000c00810204565b61ffff168552620006d96107b264010000000062000cb6810204565b8551620006f39061ffff1664010000000062000cb6810204565b039250826301e285000284019350826107b286600001510361ffff16036301e133800284019350600191505b600c60ff831611620007775784516200074390839064010000000062000cd1810204565b60ff1662015180029050858482011115620007675760ff8216602086015262000777565b928301926001909101906200071f565b600191505b6020850151855162000798919064010000000062000cd1810204565b60ff168260ff16111515620007d957858462015180011115620007c45760ff82166040860152620007d9565b6201518093909301926001909101906200077c565b620007ed8664010000000062000db2810204565b60ff166060860152620008098664010000000062000dce810204565b60ff166080860152620008258664010000000062000dda810204565b60ff1660a0860152620008418664010000000062000de5810204565b60ff1660c08601525092949350505050565b6000806200087e731d3b2638a7cc9f2cb3d298a3da7a90b67e5506ed6401000000006200067b810204565b1115620008fc5760008054600160a060020a031916731d3b2638a7cc9f2cb3d298a3da7a90b67e5506ed17905560408051808201909152600b81527f6574685f6d61696e6e65740000000000000000000000000000000000000000006020820152620008f39064010000000062000df8810204565b50600162000bfd565b60006200092673c03a2615d5efaf5f49f60b7bb6583eaec212fdf16401000000006200067b810204565b11156200099b5760008054600160a060020a03191673c03a2615d5efaf5f49f60b7bb6583eaec212fdf117905560408051808201909152600c81527f6574685f726f707374656e3300000000000000000000000000000000000000006020820152620008f39064010000000062000df8810204565b6000620009c573b7a07bcf2ba2f2703b24c0691b5278999c59ac7e6401000000006200067b810204565b111562000a3a5760008054600160a060020a03191673b7a07bcf2ba2f2703b24c0691b5278999c59ac7e17905560408051808201909152600981527f6574685f6b6f76616e00000000000000000000000000000000000000000000006020820152620008f39064010000000062000df8810204565b600062000a6473146500cfd35b22e4a392fe0adc06de1a1368ed486401000000006200067b810204565b111562000ad95760008054600160a060020a03191673146500cfd35b22e4a392fe0adc06de1a1368ed4817905560408051808201909152600b81527f6574685f72696e6b6562790000000000000000000000000000000000000000006020820152620008f39064010000000062000df8810204565b600062000b03736f485c8bf6fc43ea212e93bbf8ce046c7f1cb4756401000000006200067b810204565b111562000b39575060008054600160a060020a031916736f485c8bf6fc43ea212e93bbf8ce046c7f1cb475179055600162000bfd565b600062000b637320e12a1f859b3feae5fb2a0a32c18f5a65555bbf6401000000006200067b810204565b111562000b99575060008054600160a060020a0319167320e12a1f859b3feae5fb2a0a32c18f5a65555bbf179055600162000bfd565b600062000bc37351efaf4c8b3c9afbd5ab9f4bbc82784ab6ef8faa6401000000006200067b810204565b111562000bf9575060008054600160a060020a0319167351efaf4c8b3c9afbd5ab9f4bbc82784ab6ef8faa179055600162000bfd565b5060005b90565b6000806107b26301e133808404810190829062000c269064010000000062000cb6810204565b62000c3e61ffff841664010000000062000cb6810204565b039050806301e285000283019250806107b2830361ffff16036301e1338002830192505b8483111562000cae5762000c83600019830164010000000062000e11810204565b1562000c98576301e285008303925062000ca2565b6301e13380830392505b60018203915062000c62565b509392505050565b60001901600061019082046064830460048404030192915050565b60008260ff166001148062000ce957508260ff166003145b8062000cf857508260ff166005145b8062000d0757508260ff166007145b8062000d1657508260ff166008145b8062000d2557508260ff16600a145b8062000d3457508260ff16600c145b1562000d435750601f62000694565b8260ff166004148062000d5957508260ff166006145b8062000d6857508260ff166009145b8062000d7757508260ff16600b145b1562000d865750601e62000694565b62000d9a8264010000000062000e11810204565b1562000da95750601d62000694565b50601c92915050565b60006018603c8084045b0481151562000dc757fe5b0692915050565b6000603c808362000dbc565b6000603c8262000dc7565b6000600760046201518084040162000dc7565b805162000e0d90600290602084019062000e65565b5050565b6000600382161562000e265750600062000676565b606461ffff83160661ffff161562000e415750600162000676565b61019061ffff83160661ffff161562000e5d5750600062000676565b506001919050565b828054600181600116156101000203166002900490600052602060002090601f016020900481019282601f1062000ea857805160ff191683800117855562000ed8565b8280016001018555821562000ed8579182015b8281111562000ed857825182559160200191906001019062000ebb565b5062000ee692915062000f26565b5090565b6040805160e081018252600080825260208201819052918101829052606081018290526080810182905260a0810182905260c081019190915290565b62000bfd91905b8082111562000ee6576000815560010162000f2d565b614b6c8062000f536000396000f3006080604052600436106102005763ffffffff60e060020a6000350416630a17e68581146102765780631554131f146102af578063200d2ed2146102b957806327dc297e146102de5780632c55581a1461033c57806330c402761461036357806333d96f8c1461037857806338bbfa50146103ab5780633e239e1a146104475780634917dfdd1461047557806349756f921461048d5780634ac1ad78146104a5578063534f9eb3146104bd57806357ea2c0e146104c55780635bf5d54c1461054157806361da95761461055657806362ba96871461057557806365c72840146105a95780636a80dd1d146105c15780636b1f62cc146105d9578063733c4067146105f1578063792e6e5b146106065780637f7918331461060e57806383fe2b3d1461063c578063860db2ef1461065157806389d66ee6146106595780638aa001fc146107165780638c8d98a01461072e5780638df6a016146107565780639054bdec1461076b57806390644456146107a557806392d66313146107b057806398b7a7d3146107df5780639b963acd146107e7578063a324ad24146107fc578063a6f0e57714610814578063b199993714610830578063b238ad0e14610848578063b41114f21461086a578063b75fe1f21461087f578063bd0c97541461089d578063d541508314610982578063de4a03861461098a578063fa93f88314610992575b60408051338152346020820152600181830152608060608201819052601b908201527fe5b7b2e694afe4bb98e588b0e59088e5908c63616c6c5f6261636b000000000060a082015290517f565596f25d7b5651b22a8bf9e33e5d811c06f1ec0e88f9c661f9390e7cd8da199181900360c00190a1005b34801561028257600080fd5b5061028b6109aa565b6040518082600381111561029b57fe5b60ff16815260200191505060405180910390f35b6102b76109b3565b005b3480156102c557600080fd5b506102ce610baf565b6040518082600581111561029b57fe5b3480156102ea57600080fd5b5060408051602060046024803582810135601f81018590048502860185019096528585526102b7958335953695604494919390910191908190840183828082843750949750610bb89650505050505050565b34801561034857600080fd5b50610351610e58565b60408051918252519081900360200190f35b34801561036f57600080fd5b50610351610e5e565b34801561038457600080fd5b50610390600435610e64565b60408051921515835260208301919091528051918290030190f35b3480156103b757600080fd5b5060408051602060046024803582810135601f81018590048502860185019096528585526102b795833595369560449491939091019190819084018382808284375050604080516020601f89358b018035918201839004830284018301909452808352979a999881019791965091820194509250829150840183828082843750949750610e839650505050505050565b34801561045357600080fd5b5061045f600435610e88565b6040805160ff9092168252519081900360200190f35b34801561048157600080fd5b506102b7600435610ea5565b34801561049957600080fd5b506102b760043561105d565b3480156104b157600080fd5b5061045f6004356113f8565b6102b761140a565b3480156104d157600080fd5b506104dd600435611658565b604051808b60038111156104ed57fe5b60ff168152602081019a909a52506040808a01989098526060890196909652608088019490945260a0870192909252151560c086015260e08501526101008401526101208301525190819003610140019150f35b34801561054d57600080fd5b5061035161170a565b610561600435611710565b604080519115158252519081900360200190f35b34801561058157600080fd5b5061035161ffff6004351660ff60243581169060443581169060643581169060843516611ade565b3480156105b557600080fd5b5061045f600435611af9565b3480156105cd57600080fd5b50610390600435611b0e565b3480156105e557600080fd5b50610561600435611b2d565b3480156105fd57600080fd5b50610351611b42565b6102b7611b48565b34801561061a57600080fd5b5061035161ffff6004351660ff60243581169060443581169060643516611d22565b34801561064857600080fd5b50610351611d3c565b6102b7611d42565b34801561066557600080fd5b50610671600435612015565b604051808560a080838360005b8381101561069657818101518382015260200161067e565b5050505090500184600460200280838360005b838110156106c15781810151838201526020016106a9565b5050505090500183600460200280838360005b838110156106ec5781810151838201526020016106d4565b505050509050018260038111156106ff57fe5b60ff16815260200194505050505060405180910390f35b34801561072257600080fd5b5061045f6004356122f0565b34801561073a57600080fd5b5061035161ffff6004351660ff602435811690604435166122fa565b34801561076257600080fd5b50610351612314565b34801561077757600080fd5b5061035161ffff6004351660ff60243581169060443581169060643581169060843581169060a4351661231a565b6102b7600435612460565b3480156107bc57600080fd5b506107c86004356126a6565b6040805161ffff9092168252519081900360200190f35b6102b7612736565b3480156107f357600080fd5b50610351612aa9565b34801561080857600080fd5b5061045f600435612aaf565b34801561082057600080fd5b5061056161ffff60043516612ac4565b34801561083c57600080fd5b50610351600435612b12565b34801561085457600080fd5b5061045f60ff6004351661ffff60243516612b2d565b34801561087657600080fd5b50610351612bf5565b34801561088b57600080fd5b506102b7600435602435604435612bfb565b3480156108a957600080fd5b506108b2612e94565b60408051600160a060020a03808816825286166020820152908101606082018460058111156108dd57fe5b60ff168152602001836101a080838360005b838110156109075781810151838201526020016108ef565b50505050905001828103825285818151815260200191508051906020019080838360005b8381101561094357818101518382015260200161092b565b50505050905090810190601f1680156109705780820380516001836020036101000a031916815260200191505b50965050505050505060405180910390f35b6102b761303b565b6102b761317e565b34801561099e57600080fd5b5061045f60043561338b565b60215460ff1681565b601654600090600160a060020a03163314610a06576040805160e560020a62461bcd0281526020600482015260186024820152600080516020614b01833981519152604482015290519081900360640190fd5b60215460ff166003811115610a1757fe5b600314610a94576040805160e560020a62461bcd02815260206004820152602160248201527fe58f8ce696b9e69caae8bebee68890e4b880e887b4e4b88de883bde58f96e6ac60448201527fbe00000000000000000000000000000000000000000000000000000000000000606482015290519081900360840190fd5b506020546000811115610ba75760006020819055604051339183156108fc02918491818181858888f193505050501515610b33576020818155604080513381529182018390526000828201526080606083018190526012908301527fe58f96e587bae68abce98791e5a4b1e8b4a5000000000000000000000000000060a083015251600080516020614b218339815191529181900360c00190a1610bac565b601b805482900390556020805460408051338152928301919091526001828201526080606083018190526012908301527fe58f96e587bae68abce98791e68890e58a9f000000000000000000000000000060a083015251600080516020614b218339815191529181900360c00190a1610bac565b600080fd5b50565b600b5460ff1681565b6000828152600960205260408120548190819081908190819060ff1615610ca45760008881526009602090815260408083206001015483526007909152902060048101546008909101549096509450600a85870104600d54019350610c1e876002613396565b9250670de0b6b3a7640000915082848302811515610c3857fe5b60008a81526009602081815260408084206001808201805487526007855283872098909704600d9098018890558654865291852082018b9055603480549092019091556005546006546019805491909202900390558d8452919052805460ff1916905590559050610d72565b60008881526008602052604090205460ff1615610d1e57610cc487613550565b60008981526008602081815260408084206001808201805487526007855292862060020196909655603480549096019095556005546006546019805491909202900390558c8452919052825460ff19169092559055610d72565b6000888152600a602052604090205460ff1615610ba757601c80546001019055610d4661355d565b6005546006546019805491909202600202900390556000888152600a60205260409020805460ff191690555b6034546001161515610e4e57601c546000908152600760205260409020600c01805460ff19166001179055610da5613731565b601c546000908152600760209081526040918290208054600f90910154925133808252600080516020614a8183398151915294909360ff90931692600192908101846003811115610df257fe5b60ff16815292151560208401526040808401929092528203608090810160608401526009908301527fe5b7b2e68a84e8a1a8000000000000000000000000000000000000000000000060a0830152519081900360c00192509050a15b5050505050505050565b60205481565b601e5481565b6008602052600090815260409020805460019091015460ff9091169082565b505050565b60006018603c8084045b04811515610e9c57fe5b0690505b919050565b601754600160a060020a03163314610ef5576040805160e560020a62461bcd0281526020600482015260186024820152600080516020614a61833981519152604482015290519081900360640190fd5b600480600b5460ff166005811115610f0957fe5b14610f4c576040805160e560020a62461bcd02815260206004820152601e6024820152600080516020614aa1833981519152604482015290519081900360640190fd5b60215460ff166003811115610f5d57fe5b60031415610fa3576040805160e560020a62461bcd02815260206004820152601e6024820152600080516020614aa1833981519152604482015290519081900360640190fd5b601b54829003601f5560208281556021805460ff1916600190811791829055604051338082527f8734ad07c056f7feceb21115b19f98b21ecd2e075f3ea6945471b30df58010ae94909360ff16929190810183600381111561100157fe5b60ff16815260200182151515158152602001806020018281038252601e8152602001807fe4bfaee694b9e78ab6e68081e7ad89e5be85e7a79fe5aea2e7a1aee8aea4000081525060200194505050505060405180910390a15050565b601654600160a060020a031633146110ad576040805160e560020a62461bcd0281526020600482015260186024820152600080516020614b01833981519152604482015290519081900360640190fd5b600480600b5460ff1660058111156110c157fe5b14611104576040805160e560020a62461bcd02815260206004820152601e6024820152600080516020614aa1833981519152604482015290519081900360640190fd5b60215460ff16600381111561111557fe5b6003141561115b576040805160e560020a62461bcd02815260206004820152601e6024820152600080516020614aa1833981519152604482015290519081900360640190fd5b81600214156112a1576021805460ff191660021790819055604051338082527f8734ad07c056f7feceb21115b19f98b21ecd2e075f3ea6945471b30df58010ae92909160ff90911690600090602081018360038111156111b757fe5b60ff16815260200182151515158152602001806020018281038252601e8152602001807fe4b88de68ea5e58f97e688bfe4b89ce98080e59b9ee79a84e68abce98791000081525060200194505050505060405180910390a1600b5460405133808252600080516020614ac183398151915292909160ff909116906000906020810183600581111561124457fe5b60ff16815260200182151515158152602001806020018281038252601e8152602001807fe4b88de68ea5e58f97e688bfe4b89ce98080e59b9ee79a84e68abce98791000081525060200194505050505060405180910390a16113f4565b81600314156113f4576021805460ff19908116600390811792839055600b8054909216600517909155604051338082527f8734ad07c056f7feceb21115b19f98b21ecd2e075f3ea6945471b30df58010ae93909260ff909116916001916020820190849081111561130e57fe5b60ff16815260200182151515158152602001806020018281038252601b8152602001807fe68ea5e58f97e688bfe4b89ce98080e59b9ee79a84e68abce98791000000000081525060200194505050505060405180910390a1600b5460405133808252600080516020614ac183398151915292909160ff909116906001906020810183600581111561139b57fe5b60ff1681526020018215151515815260200180602001828103825260158152602001807fe7a79fe8b581e59088e5908ce5b7b2e5ae8ce68890000000000000000000000081525060200194505050505060405180910390a15b5050565b60006007600462015180840401610e9c565b601754600090600160a060020a0316331461145d576040805160e560020a62461bcd0281526020600482015260186024820152600080516020614a61833981519152604482015290519081900360640190fd5b60215460ff16600381111561146e57fe5b6003146114eb576040805160e560020a62461bcd02815260206004820152602160248201527fe58f8ce696b9e69caae8bebee68890e4b880e887b4e4b88de883bde58f96e6ac60448201527fbe00000000000000000000000000000000000000000000000000000000000000606482015290519081900360840190fd5b600480600b5460ff1660058111156114ff57fe5b14611542576040805160e560020a62461bcd02815260206004820152601e6024820152600080516020614aa1833981519152604482015290519081900360640190fd5b601f5491506000821115610ba7576000601f819055604051339184156108fc02918591818181858888f1935050505015156115e457601f82905560408051338152602081018490526000818301526080606082018190526012908201527fe58f96e587bae68abce98791e5a4b1e8b4a5000000000000000000000000000060a08201529051600080516020614b218339815191529181900360c00190a16113f4565b601b80548390039055601f546040805133815260208101929092526001828201526080606083018190526012908301527fe58f96e587bae68abce98791e68890e58a9f000000000000000000000000000060a083015251600080516020614b218339815191529181900360c00190a16113f4565b6007602081815260009283526040928390208054600182015460028301546003840154875160808082018a52600487015482526005870154828901526006870154828b01529786015460608083019190915289519889018a5260088701548952600987015497890197909752600a86015498880198909852600b85015495870195909552600c840154600d850154600e860154600f9096015460ff95861699949893979694959394939092169290918a565b601c5481565b601754600090819081908190600160a060020a03163314611769576040805160e560020a62461bcd0281526020600482015260186024820152600080516020614a61833981519152604482015290519081900360640190fd5b8460028060008381526007602052604090205460ff16600381111561178a57fe5b146117cd576040805160e560020a62461bcd02815260206004820152601e6024820152600080516020614aa1833981519152604482015290519081900360640190fd5b6000878152600760205260408120600f8101549096509450849350831115610ba7576000600f86018190558781526007602052604090208554815487929160ff1690829060ff1916600183600381111561182357fe5b0217905550600182810154908201556002808301549082015560038083015490820155600480830154908201556005808301549082015560068083015490820155600780830154908201556008808301549082015560098083015490820155600a8083015490820155600b8083015490820155600c80830154908201805460ff191660ff9092161515919091179055600d8083015490820155600e8083015490820155600f9182015491015560405133906108fc8515029085906000818181858888f193505050501515611a1b57600f850183905560008781526007602052604090208554815487929160ff1690829060ff1916600183600381111561192557fe5b0217905550600182810154908201556002808301549082015560038083015490820155600480830154908201556005808301549082015560068083015490820155600780830154908201556008808301549082015560098083015490820155600a8083015490820155600b8083015490820155600c80830154908201805460ff191660ff9092161515919091179055600d8083015490820155600e8083015490820155600f91820154910155604080513381526020810185905260008183015290517f772f6e198974e68bf6f21334cdb7e0411ed95c9a2c7d78906bbe7b9cffcfe8f9916060908290030190a160009550611ad4565b600087815260076020908152604091829020805460ff19166003908117808355600f90920154935133808252600080516020614a8183398151915295909460ff90941693600193919291908201908590811115611a7457fe5b60ff1681529215156020840152604080840192909252820360809081016060840152600f908301527fe5b7b2e58f96e587bae68abce98791000000000000000000000000000000000060a0830152519081900360c00192509050a1600195505b5050505050919050565b6000611aef8686868686600061231a565b9695505050505050565b6000611b04826139c8565b6040015192915050565b6009602052600090815260409020805460019091015460ff9091169082565b600a6020526000908152604090205460ff1681565b601f5481565b6000600580600b5460ff166005811115611b5e57fe5b14611ba1576040805160e560020a62461bcd02815260206004820152601e6024820152600080516020614aa1833981519152604482015290519081900360640190fd5b601754600160a060020a03163314611bf1576040805160e560020a62461bcd0281526020600482015260186024820152600080516020614a61833981519152604482015290519081900360640190fd5b60195491506000821115610ba75760006019819055604051339184156108fc02918591818181858888f193505050501515611ca557601982905560408051338152602081018490526000818301526080606082018190526018908201527fe58f96e587bae59088e5908ce4bd99e9a29de5a4b1e8b4a5000000000000000060a082015290517f6263c98c27720a79e34f20c37d391f66a8e80b9698b38f8158cb429cb3802d6e9181900360c00190a16113f4565b6019546040805133815260208101929092526001828201526080606083018190526018908301527fe58f96e587bae59088e5908ce4bd99e9a29de68890e58a9f000000000000000060a0830152517f6263c98c27720a79e34f20c37d391f66a8e80b9698b38f8158cb429cb3802d6e9181900360c00190a16113f4565b6000611d338585858560008061231a565b95945050505050565b60195481565b601754600090600160a060020a0316331480611d685750601654600160a060020a031633145b1515611dac576040805160e560020a62461bcd02815260206004820152601e6024820152600080516020614ae1833981519152604482015290519081900360640190fd5b600380600b5460ff166005811115611dc057fe5b14611e03576040805160e560020a62461bcd02815260206004820152601e6024820152600080516020614aa1833981519152604482015290519081900360640190fd5b6001600f5403601c541415611ee657600091505b601c548211611ee157600260008381526007602052604090205460ff166003811115611e3f57fe5b14611ed657600b5460405133808252600080516020614ac183398151915292909160ff9091169060009060208101836005811115611e7957fe5b60ff1681526020018215151515815260200180602001828103825260158152602001807fe5ad98e59ca8e69caae694afe4bb98e7a79fe98791000000000000000000000081525060200194505050505060405180910390a16113f4565b600190910190611e17565b611f78565b600b5460405133808252600080516020614ac183398151915292909160ff9091169060009060208101836005811115611f1b57fe5b60ff1681526020018215151515815260200180602001828103825260128152602001807fe69caae588b0e7baa6e5ae9ae7a79fe69c9f000000000000000000000000000081525060200194505050505060405180910390a16113f4565b600b805460ff19166004179081905560405133808252600080516020614ac183398151915292909160ff9091169060019060208101836005811115611fb957fe5b60ff1681526020018215151515815260200180602001828103825260188152602001807fe5ae8ce68890e585a8e983a8e7a79fe8b581e8b4a6e58d95000000000000000081525060200194505050505060405180910390a15050565b61201d614883565b6120256148a2565b61202d6148a2565b60006120376148c1565b61203f614923565b612047614923565b601754600160a060020a031633148061206a5750601654600160a060020a031633145b15156120ae576040805160e560020a62461bcd02815260206004820152601e6024820152600080516020614ae1833981519152604482015290519081900360640190fd5b6001600b5460ff1660058111156120c157fe5b141580156120e057506002600b5460ff1660058111156120dd57fe5b14155b151561215b576040805160e560020a62461bcd028152602060048201526024808201527fe5bd93e5898de78ab6e68081e6b2a1e69c89e7a79fe98791e8b4a6e58d95e79460448201527f9fe6889000000000000000000000000000000000000000000000000000000000606482015290519081900360840190fd5b60008881526007602052604090819020815161014081019092528054829060ff16600381111561218757fe5b600381111561219257fe5b815260018201546020808301919091526002830154604080840191909152600384015460608085019190915281516080818101845260048701548252600587015482860152600687015482850152600787015482840152808601919091528251808201845260088701548152600987015481860152600a87015481850152600b8701548184015260a080870191909152600c87015460ff16151560c0870152600d87015460e080880191909152600e880154610100880152600f90970154610120968701528782015188820151855192830186528987015183529789015182870152888501518286015288840151828501529588015181830152835180830185528651815286860151818701528685015181860152958301518684015283519182018452865182528685015194820194909452858301519281019290925293840151938101939093529251929b909a50909850909650945050505050565b6000603c82610e9c565b600061230c848484600080600061231a565b949350505050565b60345481565b60008061232561494c565b6107b291505b8861ffff168261ffff16101561236c5761234482612ac4565b15612357576301e2850083019250612361565b6301e13380830192505b60019091019061232b565b601f815261237989612ac4565b1561238a57601d6020820152612392565b601c60208201525b601f60408201819052601e606083018190526080830182905260a0830181905260c0830182905260e0830182905261010083018190526101208301829052610140830152610160820152600191505b8760ff168261ffff161015612422578061ffff600019840116600c811061240457fe5b602002015160ff1662015180028301925081806001019250506123e1565b6001870360ff166201518002830192508560ff16610e1002830192508460ff16603c02830192508360ff168301925082925050509695505050505050565b601654600160a060020a031633146124b0576040805160e560020a62461bcd0281526020600482015260186024820152600080516020614b01833981519152604482015290519081900360640190fd5b8060018060008381526007602052604090205460ff1660038111156124d157fe5b14612514576040805160e560020a62461bcd02815260206004820152601e6024820152600080516020614aa1833981519152604482015290519081900360640190fd5b6000838152600760205260409020600d015434146125d65760008381526007602090815260408083208054600f90910154915133808252600080516020614a8183398151915295909460ff909316939092909190810184600381111561257657fe5b60ff1681529215156020840152604080840192909252820360809081016060840152601e908301527fe7a79fe98791e4b88ee5ba94e7bcb4e98791e9a29de4b88de4b880e887b4000060a0830152519081900360c00192509050a1600080fd5b600083815260076020908152604091829020600f810180543490810191829055600d83018054919091039055815460ff191660021780835542600393840155935133808252600080516020614a8183398151915295909460ff909116936001939291820190859081111561264657fe5b60ff1681529215156020840152604080840192909252820360809081016060840152600f908301527fe5b7b2e694afe4bb98e7a79fe98791000000000000000000000000000000000060a0830152519081900360c00192509050a1505050565b6000806107b26301e13380840481019082906126c190612b12565b6126ce8361ffff16612b12565b039050806301e285000283019250806107b2830361ffff16036301e1338002830192505b8483111561272e5761270660018303612ac4565b15612719576301e2850083039250612723565b6301e13380830392505b6001820391506126f2565b509392505050565b601654600160a060020a03163314612786576040805160e560020a62461bcd0281526020600482015260186024820152600080516020614b01833981519152604482015290519081900360640190fd5b600280600b5460ff16600581111561279a57fe5b146127dd576040805160e560020a62461bcd02815260206004820152601e6024820152600080516020614aa1833981519152604482015290519081900360640190fd5b601b8054340190819055600c54600491111561288557600b5460405133808252600080516020614ac183398151915292909160ff909116906000906020810183600581111561282857fe5b60ff1681526020018215151515815260200180602001828103825260158152602001807fe694afe4bb98e79a84e68abce98791e8bf87e5a49a000000000000000000000081525060200194505050505060405180910390a16129ec565b600c54601b54141561295e57600b805460ff191660031790556128a661355d565b600b5460405133808252600080516020614ac183398151915292909160ff90911690600190602081018360058111156128db57fe5b60ff1681526020018215151515815260200180602001828103825260288152602001807fe5b7b2e5ae8ce68890e68abce98791e79a84e694afe4bb982ce8afb7e694afe481526020017fbb98e7a79fe9879100000000000000000000000000000000000000000000000081525060400194505050505060405180910390a16129ec565b600b5460405133808252600080516020614ac183398151915292909160ff909116906000906020810183600581111561299357fe5b60ff1681526020018215151515815260200180602001828103825260158152602001807fe694afe4bb98e79a84e68abce98791e8bf87e5b091000000000000000000000081525060200194505050505060405180910390a15b60065460055482020260195410156113f45760065460055460195460408051338152928502909302602083015281830152608060608201819052602e908201527fe5bd93e5898de8b4a6e688b7e4bd99e9a29de4b88de8b6b32ce8afb7e59091e560a08201527f9088e7baa6e59091e8bdace8b4a600000000000000000000000000000000000060c082015290517f0b1088a39f9440b0967d0c1134d6856d576fe600b744c7650a6aab8c3336dc359181900360e00190a1600080fd5b601b5481565b6000612aba826139c8565b6020015192915050565b60006003821615612ad757506000610ea0565b606461ffff83160661ffff1615612af057506001610ea0565b61019061ffff83160661ffff1615612b0a57506000610ea0565b506001919050565b60001901600061019082046064830460048404030192915050565b60008260ff1660011480612b4457508260ff166003145b80612b5257508260ff166005145b80612b6057508260ff166007145b80612b6e57508260ff166008145b80612b7c57508260ff16600a145b80612b8a57508260ff16600c145b15612b975750601f612bef565b8260ff1660041480612bac57508260ff166006145b80612bba57508260ff166009145b80612bc857508260ff16600b145b15612bd55750601e612bef565b612bde82612ac4565b15612beb5750601d612bef565b50601c5b92915050565b601d5481565b60175460009081908190819081908190600160a060020a0316331480612c2b5750601654600160a060020a031633145b1515612c6f576040805160e560020a62461bcd02815260206004820152601e6024820152600080516020614ae1833981519152604482015290519081900360640190fd5b50505060008681526007602081905260408083206000198a01845290832060058101546009820154600684018b9055601254918b03918202600480860191909155948401829055600a84018a9055601354908a03908102600880860191909155600b85018290558454600160ff199182168117808855988f9052959a5093985085890197508801959194909390928992839260ff82169284921690836003811115612d1657fe5b0217905550600182810154908201556002808301549082015560038083015490820155600480830154908201556005808301549082015560068083015490820155600780830154908201556008808301549082015560098083015490820155600a8083015490820155600b8083015490820155600c80830154908201805460ff191660ff9092161515919091179055600d8083015490820155600e8083015490820155600f91820154910155612dcb8a613b16565b6006546005548202026019541015612e885760065460055460195460408051338152928502909302602083015281830152608060608201819052602e908201527fe5bd93e5898de8b4a6e688b7e4bd99e9a29de4b88de8b6b32ce8afb7e59091e560a08201527f9088e7baa6e59091e8bdace8b4a600000000000000000000000000000000000060c082015290517f0b1088a39f9440b0967d0c1134d6856d576fe600b744c7650a6aab8c3336dc359181900360e00190a1600080fd5b50505050505050505050565b60008060606000612ea361496c565b601754600160a060020a0316331480612ec65750601654600160a060020a031633145b1515612f0a576040805160e560020a62461bcd02815260206004820152601e6024820152600080516020614ae1833981519152604482015290519081900360640190fd5b600b5460188054604080516020601f6002600019600187161561010002019095169490940493840181900481028201810190925282815260ff9094169550830182828015612f995780601f10612f6e57610100808354040283529160200191612f99565b820191906000526020600020905b815481529060010190602001808311612f7c57829003601f168201915b5050601754601654604080516101a08101825260145481526015546020820152600f54918101919091526010546060820152601254608082015260115460a082015260135460c0820152600d5460e0820152600e5460ff16610100820152600c54610120820152601e54610140820152601a54610160820152601c54610180820152600160a060020a039182169c919092169a50949850959650929350505050565b601654600160a060020a0316331461308b576040805160e560020a62461bcd0281526020600482015260186024820152600080516020614b01833981519152604482015290519081900360640190fd5b600180600b5460ff16600581111561309f57fe5b146130e2576040805160e560020a62461bcd02815260206004820152601e6024820152600080516020614aa1833981519152604482015290519081900360640190fd5b600b805460ff19166002179081905560405133808252600080516020614ac183398151915292909160ff909116906001906020810183600581111561312357fe5b60ff16815260200182151515158152602001806020018281038252600c8152602001807fe7adbee5908de68890e58a9f000000000000000000000000000000000000000081525060200194505050505060405180910390a150565b601754600160a060020a031633146131ce576040805160e560020a62461bcd0281526020600482015260186024820152600080516020614a61833981519152604482015290519081900360640190fd5b600080600b5460ff1660058111156131e257fe5b14613225576040805160e560020a62461bcd02815260206004820152601e6024820152600080516020614aa1833981519152604482015290519081900360640190fd5b601a5434106132d3576019805434019055600b805460ff191660019081179182905560405133808252600080516020614ac183398151915293909260ff909116916020810183600581111561327657fe5b60ff1681526020018215151515815260200180602001828103825260128152602001807fe59088e5908ce6bf80e6b4bbe68890e58a9f000000000000000000000000000081525060200194505050505060405180910390a1610bac565b600b5460405133808252600080516020614ac183398151915292909160ff909116906000906020810183600581111561330857fe5b60ff1681526020018215151515815260200180602001828103825260218152602001807fe59088e5908ce6bf80e6b4bbe5a4b1e8b4a5efbc8ce4bba5e5a4aae8bf87e5b081526020017f910000000000000000000000000000000000000000000000000000000000000081525060400194505050505060405180910390a1610bac565b6000603c8083610e92565b6000828180805b83518110156135335783517f3000000000000000000000000000000000000000000000000000000000000000908590839081106133d657fe5b90602001015160f860020a900460f860020a027effffffffffffffffffffffffffffffffffffffffffffffffffffffffffffff19161015801561347c575083517f39000000000000000000000000000000000000000000000000000000000000009085908390811061344457fe5b90602001015160f860020a900460f860020a027effffffffffffffffffffffffffffffffffffffffffffffffffffffffffffff191611155b156134d557811561349b5785151561349357613533565b600019909501945b600a83029250603084828151811015156134b157fe5b90602001015160f860020a900460f860020a0260f860020a9004038301925061352b565b83818151811015156134e357fe5b90602001015160f860020a900460f860020a027effffffffffffffffffffffffffffffffffffffffffffffffffffffffffffff1916602e60f860020a02141561352b57600191505b60010161339d565b60008611156135455785600a0a830292505b509095945050505050565b6000612bef826000613396565b601c54151561365557601c54600090815260076020526040902060228054825491929160ff90911690829060ff1916600183600381111561359a57fe5b0217905550600182810154908201556002808301549082015560038083015490820155600480830154908201556005808301549082015560068083015490820155600780830154908201556008808301549082015560098083015490820155600a8083015490820155600b8083015490820155600c80830154908201805460ff191660ff9092161515919091179055600d8083015490820155600e8083015490820155600f918201549101556136506000613b16565b61372f565b6022805460ff19908116909155601c546000198101600090815260076020819052604080832060058082015460279081556028868155600993840154602b908155602c8881559888529490962080548916815560235460018201556024546002820155602554600382015560265460048201559054918101919091559354600685015560295492840192909255602a54600884015554908201559054600a820155602d54600b820155602e54600c8201805490931660ff909116151517909155602f54600d820155603054600e820155603154600f909101555b565b6017546000908190819081908190600160a060020a031633148061375f5750601654600160a060020a031633145b15156137a3576040805160e560020a62461bcd02815260206004820152601e6024820152600080516020614ae1833981519152604482015290519081900360640190fd5b600e54601e5460ff90911695506137b9906126a6565b93506137c6601e54612aaf565b92508260ff16600c14156137e15760019384019392506137e8565b8260010192505b8260ff16600214156138365760038416151561381a57601d8560ff16111561381557601d945062263b8091505b613831565b601c8560ff16111561383157601c94506224ea0091505b61388e565b8260ff166004148061384b57508260ff166006145b8061385957508260ff166009145b8061386757508260ff16600b145b1561388757601e8560ff16111561383157601e945062278d00915061388e565b6228de8091505b6001600f5403601c5410156139bb5761398d61012c6040805190810160405280600381526020017f55524c000000000000000000000000000000000000000000000000000000000081525060a060405190810160405280607b81526020017f6a736f6e28687474703a2f2f6170692e6b3738302e636f6d3a38382f3f61707081526020017f3d6c6966652e74696d65266170706b65793d3130303033267369676e3d62353981526020017f626333656636313931656239663734376464346538336339396632613426666f81526020017f726d61743d6a736f6e292e726573756c742e74696d657374616d700000000000815250600554600202613d3d565b6000818152600a60205260409020805460ff1916600117905590506139b38484876122fa565b601e556139c1565b6000601e555b5050505050565b6139d061498c565b60008080806139de866126a6565b61ffff1685526139ef6107b2612b12565b85516139fe9061ffff16612b12565b039250826301e285000284019350826107b286600001510361ffff16036301e133800284019350600191505b600c60ff831611613a7457613a43828660000151612b2d565b60ff1662015180029050858482011115613a655760ff82166020860152613a74565b92830192600190910190613a2a565b600191505b613a8b85602001518660000151612b2d565b60ff168260ff16111515613ac857858462015180011115613ab45760ff82166040860152613ac8565b620151809390930192600190910190613a79565b613ad186610e88565b60ff166060860152613ae28661338b565b60ff166080860152613af3866122f0565b60ff1660a0860152613b04866113f8565b60ff1660c08601525092949350505050565b600080613bdd6040805190810160405280600381526020017f55524c0000000000000000000000000000000000000000000000000000000000815250608060405190810160405280604981526020017f6a736f6e2868747470733a2f2f6d696e2d6170692e63727970746f636f6d706181526020017f72652e636f6d2f646174612f70726963653f6673796d3d455448267473796d7381526020017f3d434e59292e434e59000000000000000000000000000000000000000000000081525060055461413f565b9150613cc96040805190810160405280600381526020017f55524c000000000000000000000000000000000000000000000000000000000081525060a060405190810160405280607b81526020017f6a736f6e28687474703a2f2f6170692e6b3738302e636f6d3a38382f3f61707081526020017f3d6c6966652e74696d65266170706b65793d3130303033267369676e3d62353981526020017f626333656636313931656239663734376464346538336339396632613426666f81526020017f726d61743d6a736f6e292e726573756c742e74696d657374616d70000000000081525060055461413f565b604080518082018252600180825260209182018790526032805460ff1990811683178083556033998a55600098895260098552858920805460ff92831615159084161781558a5490850155958852600890935292909520915482549316151592169190911781559254929091019190915550565b600080548190600160a060020a03161580613d6a5750600054613d6890600160a060020a031661453e565b155b15613d7b57613d796000614542565b505b6000809054906101000a9004600160a060020a0316600160a060020a03166338cc48316040518163ffffffff1660e060020a028152600401602060405180830381600087803b158015613dcd57600080fd5b505af1158015613de1573d6000803e3d6000fd5b505050506040513d6020811015613df757600080fd5b5051600154600160a060020a03908116911614613eac576000809054906101000a9004600160a060020a0316600160a060020a03166338cc48316040518163ffffffff1660e060020a028152600401602060405180830381600087803b158015613e6057600080fd5b505af1158015613e74573d6000803e3d6000fd5b505050506040513d6020811015613e8a57600080fd5b505160018054600160a060020a031916600160a060020a039092169190911790555b600154604080517f2ef3accc0000000000000000000000000000000000000000000000000000000081526024810186905260048101918252875160448201528751600160a060020a0390931692632ef3accc9289928892829160640190602086019080838360005b83811015613f2c578181015183820152602001613f14565b50505050905090810190601f168015613f595780820380516001836020036101000a031916815260200191505b509350505050602060405180830381600087803b158015613f7957600080fd5b505af1158015613f8d573d6000803e3d6000fd5b505050506040513d6020811015613fa357600080fd5b50519050670de0b6b3a76400003a840201811115613fc45760009150614136565b6001546040517fc51be90f0000000000000000000000000000000000000000000000000000000081526004810188815260648201869052608060248301908152885160848401528851600160a060020a039094169363c51be90f9386938c938c938c938c939291604482019160a40190602088019080838360005b8381101561405757818101518382015260200161403f565b50505050905090810190601f1680156140845780820380516001836020036101000a031916815260200191505b50838103825285518152855160209182019187019080838360005b838110156140b757818101518382015260200161409f565b50505050905090810190601f1680156140e45780820380516001836020036101000a031916815260200191505b5096505050505050506020604051808303818588803b15801561410657600080fd5b505af115801561411a573d6000803e3d6000fd5b50505050506040513d602081101561413157600080fd5b505191505b50949350505050565b600080548190600160a060020a0316158061416c575060005461416a90600160a060020a031661453e565b155b1561417d5761417b6000614542565b505b6000809054906101000a9004600160a060020a0316600160a060020a03166338cc48316040518163ffffffff1660e060020a028152600401602060405180830381600087803b1580156141cf57600080fd5b505af11580156141e3573d6000803e3d6000fd5b505050506040513d60208110156141f957600080fd5b5051600154600160a060020a039081169116146142ae576000809054906101000a9004600160a060020a0316600160a060020a03166338cc48316040518163ffffffff1660e060020a028152600401602060405180830381600087803b15801561426257600080fd5b505af1158015614276573d6000803e3d6000fd5b505050506040513d602081101561428c57600080fd5b505160018054600160a060020a031916600160a060020a039092169190911790555b600154604080517f2ef3accc0000000000000000000000000000000000000000000000000000000081526024810186905260048101918252875160448201528751600160a060020a0390931692632ef3accc9289928892829160640190602086019080838360005b8381101561432e578181015183820152602001614316565b50505050905090810190601f16801561435b5780820380516001836020036101000a031916815260200191505b509350505050602060405180830381600087803b15801561437b57600080fd5b505af115801561438f573d6000803e3d6000fd5b505050506040513d60208110156143a557600080fd5b50519050670de0b6b3a76400003a8402018111156143c6576000915061272e565b6001546040517fc51be90f00000000000000000000000000000000000000000000000000000000815260006004820181815260648301879052608060248401908152895160848501528951600160a060020a039095169463c51be90f948794938c938c938c93604481019160a49091019060208801908083838c5b83811015614459578181015183820152602001614441565b50505050905090810190601f1680156144865780820380516001836020036101000a031916815260200191505b50838103825285518152855160209182019187019080838360005b838110156144b95781810151838201526020016144a1565b50505050905090810190601f1680156144e65780820380516001836020036101000a031916815260200191505b5096505050505050506020604051808303818588803b15801561450857600080fd5b505af115801561451c573d6000803e3d6000fd5b50505050506040513d602081101561453357600080fd5b505195945050505050565b3b90565b6000612bef600080614567731d3b2638a7cc9f2cb3d298a3da7a90b67e5506ed61453e565b11156145d85760008054600160a060020a031916731d3b2638a7cc9f2cb3d298a3da7a90b67e5506ed17905560408051808201909152600b81527f6574685f6d61696e6e657400000000000000000000000000000000000000000060208201526145d090614870565b50600161486d565b60006145f773c03a2615d5efaf5f49f60b7bb6583eaec212fdf161453e565b11156146605760008054600160a060020a03191673c03a2615d5efaf5f49f60b7bb6583eaec212fdf117905560408051808201909152600c81527f6574685f726f707374656e33000000000000000000000000000000000000000060208201526145d090614870565b600061467f73b7a07bcf2ba2f2703b24c0691b5278999c59ac7e61453e565b11156146e85760008054600160a060020a03191673b7a07bcf2ba2f2703b24c0691b5278999c59ac7e17905560408051808201909152600981527f6574685f6b6f76616e000000000000000000000000000000000000000000000060208201526145d090614870565b600061470773146500cfd35b22e4a392fe0adc06de1a1368ed4861453e565b11156147705760008054600160a060020a03191673146500cfd35b22e4a392fe0adc06de1a1368ed4817905560408051808201909152600b81527f6574685f72696e6b65627900000000000000000000000000000000000000000060208201526145d090614870565b600061478f736f485c8bf6fc43ea212e93bbf8ce046c7f1cb47561453e565b11156147c3575060008054600160a060020a031916736f485c8bf6fc43ea212e93bbf8ce046c7f1cb475179055600161486d565b60006147e27320e12a1f859b3feae5fb2a0a32c18f5a65555bbf61453e565b1115614816575060008054600160a060020a0319167320e12a1f859b3feae5fb2a0a32c18f5a65555bbf179055600161486d565b60006148357351efaf4c8b3c9afbd5ab9f4bbc82784ab6ef8faa61453e565b1115614869575060008054600160a060020a0319167351efaf4c8b3c9afbd5ab9f4bbc82784ab6ef8faa179055600161486d565b5060005b90565b80516113f49060029060208401906149c8565b60a0604051908101604052806005906020820280388339509192915050565b6080604051908101604052806004906020820280388339509192915050565b60408051610200810190915280600081526020016000815260200160008152602001600081526020016148f2614923565b81526020016148ff614923565b81526020016000151581526020016000815260200160008152602001600081525090565b608060405190810160405280600081526020016000815260200160008152602001600081525090565b61018060405190810160405280600c906020820280388339509192915050565b6101a060405190810160405280600d906020820280388339509192915050565b6040805160e081018252600080825260208201819052918101829052606081018290526080810182905260a0810182905260c081019190915290565b828054600181600116156101000203166002900490600052602060002090601f016020900481019282601f10614a0957805160ff1916838001178555614a36565b82800160010185558215614a36579182015b82811115614a36578251825591602001919060010190614a1b565b50614a42929150614a46565b5090565b61486d91905b80821115614a425760008155600101614a4c5600e58faae69c89e688bfe4b89ce6898de883bde6938de4bd9c0000000000000000ea787e35d90020bf762c8b9eaf3bb3dc0e76d9c374b2c7acb33749db6b5091a9e8afa5e6938de4bd9ce4b88de7aca6e59088e5bd93e5898de78ab6e6808100009687deedb2ec361db89057dc6a602fb94263d090f6937fd20ef4f4bcf54de656e4bda0e4b88de698afe8afa5e59088e5908ce79a84e58f82e4b88ee880850000e58faae69c89e7a79fe5aea2e6898de883bde6938de4bd9c0000000000000000d0517dbc6ef2d88069cb580c2a9fc4e9abe56cb9252954993351f447377c7b1ea165627a7a723058209cc755da3d80ce72d0b45150ef932f77a8446ec6e53bfbb525efe8ab3c58335f0029",
  "source": "pragma solidity ^0.4.0;\n\nimport \"./oraclizeAPI.sol\";\nimport \"./DateTime.sol\";\n//gas:5981360\ncontract RentContract is usingOraclize, DateTime {\n\n    //oraclize Gas;\n    uint oraclizeGas = 200000;  //200,000\n    uint gasPrice = 1;          //4000000000\n    string constant oraclizeType = \"URL\";\n    string constant priceUrl = \"json(https://min-api.cryptocompare.com/data/price?fsym=ETH&tsyms=CNY).CNY\";\n    string constant dateUrl = \"json(http://api.k780.com:88/?app=life.time&appkey=10003&sign=b59bc3ef6191eb9f747dd4e83c99f2a4&format=json).result.timestamp\";\n    //    \n    enum RentContractStatus{\n        ACTIVE_CONTRACT,\n        SIGNATURE_CONTRACT,\n        PAYING_PLEDGE,\n        PAYING_RENT,\n        WITHDRAWING_PLEDGE,\n        COMPLETED\n    }\n\n    //   \n    enum RentFeeStatus{\n        UN_ADD_METER,\n        UN_PAY_RENT_FEE,\n        PAYED_RENT_FEE,\n        WITHDRAW_RENT_FEE\n    }\n\n    //  \n    enum PledgeConfirm{\n        CREATED,\n        CONFIRMING,\n        UN_ACCEPT,\n        ACCEPT\n    }\n\n    //\n    mapping(uint => RentPamentInfo) public rentPaymentInfoMapping;\n\n    //oraclize ID\n    mapping(bytes32 => OraclizeInfo) public oraclizeDateValidIds;\n    //oraclize ID\n    mapping(bytes32 => OraclizeInfo) public oraclizePriceValidIds;\n    //oraclize ID\n    mapping(bytes32 => bool) public oraclizeNextStage;\n\n    //\n    RentContractStatus public status;\n    //\n    uint pledgeTotal;\n    //    \n    uint rentFee;\n    //\n    uint8 payRentDate;\n    //\n    uint rentTerm;\n    //      *10\n    uint waterMeter;\n    //      *10\n    uint electricityMeter;\n    //    \n    uint waterFee;\n    //    \n    uint electricityFee;\n    //timestamp     \n    uint256 startTime;\n    //timestamp     \n    uint256 endTime;\n    //\n    address tenantPublicKey;\n    //\n    address landlordPublicKey;\n    // json\n    // bytes public pledgeTypeJson;\n    // json \n    bytes baseInfoJson;\n\n    //\n    uint public activeFee;\n    uint needActiveFee;\n\n    //\n    uint public pledgeCash;\n    //\n    uint public currentStage;\n    //\n    uint public rentFeeCash;\n    //\n    uint public nextPayRentDate;\n    //\n    uint public withDrawCashToLandlord;\n    //\n    uint public withDrawCashToTenant;\n    //\n    PledgeConfirm public pledgeStatus = PledgeConfirm.CREATED;\n    //\n    RentPamentInfo rentPaymentInit;\n    //\n    struct RentPamentInfo {\n        RentFeeStatus status;\n        uint rentFeeTotal;\n        uint createDate;\n        uint paymentDate;\n        MeterInfo waterMeterInfo;\n        MeterInfo electricityMeterInfo;\n        bool processed;\n        uint ethRentFeeTotal;\n        uint oraclizeFee;\n        uint rentFeeCash;\n    }\n    //\n    struct MeterInfo {\n        uint fee;\n        uint lastMonthMeter;\n        uint currentMonthMeter;\n        uint currentMothUse;\n    }\n\n    struct OraclizeInfo {\n        bool success;\n        uint stage;\n    }\n\n    //\n    event PayEtherEvent(address, uint, bool, string);\n    //Oricalize->\n        event OricalizeResponseEvent(bytes32, string, bool);\n    //Oricalize->\n    event OricalizeLogEvent(address, uint, uint, string);\n    //\n    event RentFeeWithdrawalEvent(address, uint, bool);\n    //\n    event PledgeWithdrawalEvent(address, uint, bool, string);\n    //\n    event ActiveWithdrawalEvent(address, uint, bool, string);\n    //\n    event ContractStatusEvent(address, RentContractStatus, bool, string);\n    //\n    event RentFeeStatusEvent(address sender, RentFeeStatus rentFeeStatus, bool SUCCESS, uint rentFeeCash, string info);\n    //\n    event PledgeWithdrawalStatusEvent(address, PledgeConfirm, bool, string);\n\n    //\n    constructor(uint _waterMeter, uint _waterFee, uint _electricityMeter,\n        uint _electricityFee, uint _rentFee, uint _rentTerm, uint _pledgeTotal,\n        uint256 _startTime, uint256 _endTime, address _tenantPublicKey, address _landlorPublickey,\n        bytes _baseInfoJson) public{\n        //oricalize\n        oraclize_setCustomGasPrice(gasPrice);\n        OAR = OraclizeAddrResolverI(0x6f485C8BF6fc43eA212E93BBF8ce046C7f1cb475);\n\n        require(_waterMeter > 0 && _waterFee > 0 && _electricityMeter > 0 && _electricityFee > 0\n        && _rentFee > 0 && _rentTerm > 0 && _pledgeTotal > 0\n        && _startTime > 0 && _endTime > 0 && _tenantPublicKey != address(0)\n        && _baseInfoJson.length > 0, \"\");\n        status = RentContractStatus.ACTIVE_CONTRACT;\n        waterMeter = _waterMeter;\n        waterFee = _waterFee;\n        electricityFee = _electricityFee;\n        electricityMeter = _electricityMeter;\n        rentFee = _rentFee;\n        payRentDate = getDay(_startTime);\n        nextPayRentDate = startTime;\n        rentTerm = _rentTerm;\n        pledgeTotal = _pledgeTotal;\n        startTime = _startTime;\n        endTime = _endTime;\n        tenantPublicKey = _tenantPublicKey;\n        landlordPublicKey = _landlorPublickey;\n        // pledgeTypeJson = _pledgeTypeJson;\n        baseInfoJson = _baseInfoJson;\n        startTime = _startTime;\n        currentStage = 0;\n        needActiveFee = _rentTerm * oraclizeGas * gasPrice * 4;\n        rentPaymentInit = RentPamentInfo({\n            status : RentFeeStatus.UN_PAY_RENT_FEE,\n            rentFeeTotal : rentFee,\n            createDate : 0,\n            paymentDate : 0,\n            waterMeterInfo : MeterInfo({\n                fee : 0,\n                lastMonthMeter : waterMeter,\n                currentMonthMeter : waterMeter,\n                currentMothUse : 0\n                }),\n            electricityMeterInfo : MeterInfo({\n                fee : 0,\n                lastMonthMeter : electricityMeter,\n                currentMonthMeter : electricityMeter,\n                currentMothUse : 0\n                }),\n            processed : false,\n            ethRentFeeTotal : 0,\n            oraclizeFee : 0,\n            rentFeeCash : 0\n            });\n    }\n\n    //\n    function getRentContractInfo() public onlyRentContractParticipator view returns (address _tenantPublicKey,\n        address _landlorPublickey, bytes _baseInfoJson,\n        RentContractStatus _status, uint[13] memory uintArr){\n        _status = status;\n        _baseInfoJson = baseInfoJson;\n        _landlorPublickey = landlordPublicKey;\n        _tenantPublicKey = tenantPublicKey;\n        uintArr = [\n        startTime,\n        endTime,\n        rentTerm,\n        waterMeter,\n        waterFee,\n        electricityMeter,\n        electricityFee,\n        rentFee,\n        payRentDate,\n        pledgeTotal,\n        nextPayRentDate,\n        needActiveFee,\n        currentStage\n        ];\n        // _pledgeTypeJson = pledgeTypeJson;\n    }\n\n\n    //oricalize\n    function activeContract()\n    onlyLandlord\n    atStage(RentContractStatus.ACTIVE_CONTRACT)\n    payable public {\n        if (msg.value >= needActiveFee) {\n            activeFee += msg.value;\n            status = RentContractStatus.SIGNATURE_CONTRACT;\n            emit ContractStatusEvent(msg.sender, status, true, \"\");\n            return;\n        } else {\n            emit ContractStatusEvent(msg.sender, status, false, \"\");\n            return;\n        }\n    }\n\n    // SIGNATURE_CONTRACT\n    function signatrueContractByTenant()\n    onlyTenant\n    atStage(RentContractStatus.SIGNATURE_CONTRACT)\n    payable public {\n        status = RentContractStatus.PAYING_PLEDGE;\n        emit ContractStatusEvent(msg.sender, status, true, \"\");\n    }\n\n    //PAYING_PLEDGE\n    function payPledge()\n    onlyTenant\n    atStage(RentContractStatus.PAYING_PLEDGE)\n    isOwnCash(4)\n    payable public {\n        pledgeCash += msg.value;\n        if (pledgeCash > pledgeTotal) {\n            emit ContractStatusEvent(msg.sender, status, false, \"\");\n            return;\n        }\n        if (pledgeCash == pledgeTotal) {\n            status = RentContractStatus.PAYING_RENT;\n            addRentPamentInfo();\n            emit ContractStatusEvent(msg.sender, status, true, \",\");\n            return;\n        } else {\n            emit ContractStatusEvent(msg.sender, status, false, \"\");\n            return;\n        }\n    }\n\n    //\n    function addRentPamentInfo() internal {\n        // /\n        if (currentStage == 0) {\n            rentPaymentInfoMapping[currentStage] = rentPaymentInit;\n            updatePrice(0);\n        } else {\n            rentPaymentInit.status = RentFeeStatus.UN_ADD_METER;\n            rentPaymentInit.waterMeterInfo.lastMonthMeter = rentPaymentInfoMapping[currentStage - 1].waterMeterInfo.lastMonthMeter;\n            rentPaymentInit.waterMeterInfo.currentMonthMeter = 0;\n            rentPaymentInit.electricityMeterInfo.lastMonthMeter = rentPaymentInfoMapping[currentStage - 1].electricityMeterInfo.lastMonthMeter;\n            rentPaymentInit.electricityMeterInfo.currentMonthMeter = 0;\n            rentPaymentInfoMapping[currentStage] = rentPaymentInit;\n        }\n\n    }\n\n    //   \n    function generateMeter(uint _stage, uint _currentWaterMeter, uint _currentElectricityMeter)\n    onlyRentContractParticipator\n    isOwnCash(4)\n    public {\n        RentPamentInfo storage currentPaymentInfo = rentPaymentInfoMapping[_stage];\n        RentPamentInfo storage prevPamentInfo = rentPaymentInfoMapping[_stage - 1];\n        MeterInfo storage prevWaterMeterInfo = prevPamentInfo.waterMeterInfo;\n        MeterInfo storage preElectricMeterInfo = prevPamentInfo.electricityMeterInfo;\n        uint waterMeterCount = _currentWaterMeter - prevWaterMeterInfo.lastMonthMeter;\n        uint electricMeterCount = _currentElectricityMeter - preElectricMeterInfo.lastMonthMeter;\n\n        currentPaymentInfo.waterMeterInfo.currentMonthMeter = _currentWaterMeter;\n        currentPaymentInfo.waterMeterInfo.fee = waterMeterCount * waterFee;\n        currentPaymentInfo.waterMeterInfo.currentMothUse = waterMeterCount;\n\n        currentPaymentInfo.electricityMeterInfo.currentMonthMeter = _currentElectricityMeter;\n        currentPaymentInfo.electricityMeterInfo.fee = electricMeterCount * electricityFee;\n        currentPaymentInfo.electricityMeterInfo.currentMothUse = electricMeterCount;\n        currentPaymentInfo.status = RentFeeStatus.UN_PAY_RENT_FEE;\n        rentPaymentInfoMapping[_stage] = currentPaymentInfo;\n//        emit RentFeeStatusEvent(msg.sender, rentPaymentInfoMapping[_stage].status,\n//            true, rentPaymentInfoMapping[_stage].rentFeeCash, \"\");\n        //\n        updatePrice(_stage);\n    }\n\n    //\n    function getRentPamentInfo(uint index)\n    onlyRentContractParticipator\n    view public returns (uint[5] rentFeeInfo, uint[4] waterInfo, uint[4] electricityinfo, RentFeeStatus _status){\n        require(status != RentContractStatus.SIGNATURE_CONTRACT\n        && status != RentContractStatus.PAYING_PLEDGE, \"\");\n        RentPamentInfo memory info = rentPaymentInfoMapping[index];\n        MeterInfo memory waterMeterInfo = info.waterMeterInfo;\n        MeterInfo memory electricityMeterInfo = info.electricityMeterInfo;\n        rentFeeInfo = [info.rentFeeTotal, info.ethRentFeeTotal, info.createDate, info.paymentDate, info.rentFeeCash];\n        waterInfo = [waterMeterInfo.fee, waterMeterInfo.lastMonthMeter, waterMeterInfo.currentMonthMeter, waterMeterInfo.currentMothUse];\n        electricityinfo = [electricityMeterInfo.fee, electricityMeterInfo.lastMonthMeter, electricityMeterInfo.currentMonthMeter, electricityMeterInfo.currentMothUse];\n        _status = info.status;\n    }\n\n    //PAYING_RENT\n    function payRentFee(uint _stage)\n    onlyTenant\n    atRentFeeStage(_stage, RentFeeStatus.UN_PAY_RENT_FEE)\n    payable public {\n        if (msg.value != rentPaymentInfoMapping[_stage].ethRentFeeTotal) {\n            emit RentFeeStatusEvent(msg.sender, rentPaymentInfoMapping[_stage].status,\n                false, rentPaymentInfoMapping[_stage].rentFeeCash, \"\");\n            revert();\n        }\n\n        rentPaymentInfoMapping[_stage].rentFeeCash += msg.value;\n        rentPaymentInfoMapping[_stage].ethRentFeeTotal -= msg.value;\n        rentPaymentInfoMapping[_stage].status = RentFeeStatus.PAYED_RENT_FEE;\n        rentPaymentInfoMapping[_stage].paymentDate = now;\n        emit RentFeeStatusEvent(msg.sender, rentPaymentInfoMapping[_stage].status,\n            true, rentPaymentInfoMapping[_stage].rentFeeCash, \"\");\n    }\n\n    //,\n    function withdrawRentFee(uint _stage)\n    onlyLandlord\n    atRentFeeStage(_stage, RentFeeStatus.PAYED_RENT_FEE)\n    payable public returns (bool){\n        RentPamentInfo storage info = rentPaymentInfoMapping[_stage];\n        uint _rentFeeCash = info.rentFeeCash;\n        uint amount = _rentFeeCash;\n        if (_rentFeeCash > 0) {\n            info.rentFeeCash = 0;\n            rentPaymentInfoMapping[_stage] = info;\n            if (!msg.sender.send(amount)) {\n                info.rentFeeCash = amount;\n                rentPaymentInfoMapping[_stage] = info;\n                emit RentFeeWithdrawalEvent(msg.sender, amount, false);\n                return false;\n            }\n            rentPaymentInfoMapping[_stage].status = RentFeeStatus.WITHDRAW_RENT_FEE;\n            emit RentFeeStatusEvent(msg.sender, rentPaymentInfoMapping[_stage].status,\n                true, rentPaymentInfoMapping[_stage].rentFeeCash, \"\");\n            return true;\n        } else {\n            revert();\n        }\n    }\n\n    //-> WITHDRAWING_PLEDGE\n    function completedRentFee()\n    onlyRentContractParticipator\n    atStage(RentContractStatus.PAYING_RENT) payable public\n    {\n        if (currentStage == rentTerm - 1) {\n            for (uint i = 0; i <= currentStage; i++) {\n                if (rentPaymentInfoMapping[i].status != RentFeeStatus.PAYED_RENT_FEE) {\n                    emit ContractStatusEvent(msg.sender, status, false, \"\");\n                    return;\n                }\n            }\n        } else {\n            emit ContractStatusEvent(msg.sender, status, false, \"\");\n            return;\n        }\n        status = RentContractStatus.WITHDRAWING_PLEDGE;\n        emit ContractStatusEvent(msg.sender, status, true, \"\");\n        return;\n    }\n\n    //\n    function judgeWithDrawalPledge(uint _amount)\n    onlyLandlord\n    atStage(RentContractStatus.WITHDRAWING_PLEDGE)\n    atUnConfirmedStage() public {\n\n        withDrawCashToLandlord = pledgeCash - _amount;\n        withDrawCashToTenant = _amount;\n        pledgeStatus = PledgeConfirm.CONFIRMING;\n        emit PledgeWithdrawalStatusEvent(msg.sender, pledgeStatus, true, \"\");\n    }\n\n    //    \n    function isAgree(uint _agree)\n    onlyTenant\n    atStage(RentContractStatus.WITHDRAWING_PLEDGE)\n    atUnConfirmedStage() public\n    {\n        if (_agree == 2) {\n            pledgeStatus = PledgeConfirm.UN_ACCEPT;\n            emit PledgeWithdrawalStatusEvent(msg.sender, pledgeStatus, false, \"\");\n            emit ContractStatusEvent(msg.sender, status, false, \"\");\n        } else if (_agree == 3) {\n            pledgeStatus = PledgeConfirm.ACCEPT;\n            status = RentContractStatus.COMPLETED;\n            emit PledgeWithdrawalStatusEvent(msg.sender, pledgeStatus, true, \"\");\n            emit ContractStatusEvent(msg.sender, status, true, \"\");\n        }\n    }\n\n    //\n    function withdrawPledgeToLandlord()\n    onlyLandlord\n    atPledgeStageAccept\n    atStage(RentContractStatus.WITHDRAWING_PLEDGE)\n    payable public {\n        uint amount = withDrawCashToLandlord;\n        if (amount > 0) {\n            withDrawCashToLandlord = 0;\n            if (!msg.sender.send(amount)) {\n                withDrawCashToLandlord = amount;\n                emit PledgeWithdrawalEvent(msg.sender, withDrawCashToLandlord, false, \"\");\n                return;\n            }\n            pledgeCash -= amount;\n            emit PledgeWithdrawalEvent(msg.sender, withDrawCashToLandlord, true, \"\");\n            return;\n        } else {\n            revert();\n        }\n    }\n\n    //\n    function withdrawPledgeToTenant()\n    onlyTenant\n    atPledgeStageAccept\n    payable public {\n        uint amount = withDrawCashToTenant;\n        if (amount > 0) {\n            withDrawCashToTenant = 0;\n            if (!msg.sender.send(amount)) {\n                withDrawCashToTenant = amount;\n                emit PledgeWithdrawalEvent(msg.sender, withDrawCashToTenant, false, \"\");\n                return;\n            }\n            pledgeCash -= amount;\n            emit PledgeWithdrawalEvent(msg.sender, withDrawCashToTenant, true, \"\");\n            return;\n        } else {\n            revert();\n        }\n    }\n\n    // \n    function withdrawActiveFee()\n    atStage(RentContractStatus.COMPLETED)\n    onlyLandlord payable public {\n        uint amount = activeFee;\n        if (amount > 0) {\n            activeFee = 0;\n            if (!msg.sender.send(amount)) {\n                activeFee = amount;\n                emit ActiveWithdrawalEvent(msg.sender, activeFee, false, \"\");\n                return;\n            }\n            emit ActiveWithdrawalEvent(msg.sender, activeFee, true, \"\");\n            return;\n        } else {\n            revert();\n        }\n    }\n\n    OraclizeInfo oraclizeInfo;\n    //  \n    function updatePrice(uint _stage)\n    internal {\n        bytes32 priceId = oraclize_query(oraclizeType, priceUrl, oraclizeGas);\n        bytes32 dateId = oraclize_query(oraclizeType, dateUrl, oraclizeGas);\n        oraclizeInfo = OraclizeInfo({\n            success : true,\n            stage : _stage\n            });\n        oraclizePriceValidIds[priceId] = oraclizeInfo;\n        oraclizeDateValidIds[dateId] = oraclizeInfo;\n    }\n\n    //oraclize\n    uint public flagCallback = 0;\n\n    function __callback(bytes32 _myid, string _result) public {\n        if (oraclizePriceValidIds[_myid].success) {\n            uint _waterFee = rentPaymentInfoMapping[oraclizePriceValidIds[_myid].stage].waterMeterInfo.fee;\n            uint _electricityFee = rentPaymentInfoMapping[oraclizePriceValidIds[_myid].stage].electricityMeterInfo.fee;\n            uint total = rentFee + (_waterFee + _electricityFee) / 10;\n            uint price = parseInt(_result, 2);\n            //\n            uint eth = 1 ether;\n            uint totalFee = eth * total / price;\n            rentPaymentInfoMapping[oraclizePriceValidIds[_myid].stage].ethRentFeeTotal = totalFee;\n            rentPaymentInfoMapping[oraclizePriceValidIds[_myid].stage].rentFeeTotal = total;\n            flagCallback = flagCallback + 1;\n            activeFee -= gasPrice * oraclizeGas;\n            delete oraclizePriceValidIds[_myid];\n        } else if (oraclizeDateValidIds[_myid].success) {\n            rentPaymentInfoMapping[oraclizeDateValidIds[_myid].stage].createDate = parseInt(_result);\n            flagCallback = flagCallback + 1;\n            activeFee -= gasPrice * oraclizeGas;\n            delete oraclizeDateValidIds[_myid];\n        } else if (oraclizeNextStage[_myid]) {\n            //oraclize \n            currentStage = currentStage + 1;\n            addRentPamentInfo();\n            activeFee -= gasPrice * oraclizeGas * 2;\n            delete oraclizeNextStage[_myid];\n//                        emit OricalizeResponseEvent(_myid, _result, true);\n        } else {\n            revert();\n        }\n        if (flagCallback % 2 == 0) {\n            //\n            //            rentPaymentInfoMapping[currentStage].status = RentFeeStatus.UN_PAY_RENT_FEE;\n            rentPaymentInfoMapping[currentStage].processed = true;\n            //     oraclize\n            nextStageTime();\n            emit RentFeeStatusEvent(msg.sender, rentPaymentInfoMapping[currentStage].status,\n                true, rentPaymentInfoMapping[currentStage].rentFeeCash, \"\");\n//                        emit OricalizeResponseEvent(_myid, _result, true);\n        }\n    }\n\n\n\n    //\n    //\n    function nextStageTime() internal\n    onlyRentContractParticipator {\n\n        uint8 day = payRentDate;\n        uint16 year = getYear(nextPayRentDate);\n        uint8 month = getMonth(nextPayRentDate);\n        // uint8 currentDate = getDay(nextPayRentDate);\n        uint time;\n        if (month == 12) {\n            year = year + 1;\n            month = 1;\n        } else {\n            month = month + 1;\n        }\n        if (month == 2) {\n            if (year % 4 == 0) {\n                if (day > 29) {\n                    day = 29;\n                    time = 60 * 60 * 24 * 29;\n                }\n            } else {\n                if (day > 28) {\n                    day = 28;\n                    time = 60 * 60 * 24 * 28;\n                }\n            }\n        } else if (month == 4 || month == 6 || month == 9 || month == 11) {\n            if (day > 30) {\n                day = 30;\n                time = 60 * 60 * 24 * 30;\n            }\n        } else {\n            time = 60 * 60 * 24 * 31;\n        }\n        if (currentStage < rentTerm - 1) {\n            bytes32 dateId = oraclize_query(300, oraclizeType, dateUrl, oraclizeGas * 2);\n            oraclizeNextStage[dateId] = true;\n            nextPayRentDate = toTimestamp(year, month, day);\n        } else {\n            nextPayRentDate = 0;\n        }\n    }\n\n    // \n    function() payable public {\n        emit PayEtherEvent(msg.sender, msg.value, true, \"call_back\");\n    }\n\n    //\n    modifier onlyTenant(){\n        require(address(msg.sender) == tenantPublicKey, \"\");\n        _;\n    }\n\n    //\n    modifier onlyLandlord(){\n        require(address(msg.sender) == landlordPublicKey, \"\");\n        _;\n    }\n\n    //\n    modifier onlyRentContractParticipator(){\n        require(address(msg.sender) == landlordPublicKey\n        || address(msg.sender) == tenantPublicKey, \"\");\n        _;\n    }\n\n    //\n    modifier atStage(RentContractStatus _status){\n        require(status == _status, \"\");\n        _;\n    }\n\n    //\n    modifier atRentFeeStage(uint _stage, RentFeeStatus _status){\n        require(rentPaymentInfoMapping[_stage].status == _status, \"\");\n        _;\n    }\n\n    //\n    modifier atUnConfirmedStage(){\n        require(PledgeConfirm.ACCEPT != pledgeStatus, \"\");\n        _;\n    }\n\n    //\n    modifier atPledgeStageAccept(){\n        require(PledgeConfirm.ACCEPT == pledgeStatus, \"\");\n        _;\n    }\n\n    //oricalize\n    modifier isOwnCash(uint count){\n        _;\n        if (activeFee < (count * oraclizeGas * gasPrice)) {\n            emit OricalizeLogEvent(msg.sender, count * oraclizeGas * gasPrice, activeFee, \",\");\n            revert();\n        }\n\n    }\n\n}",
  "sourcePath": "/Users/chenqilong/Desktop/blockchain-workspace/MUI/contracts/RentContract.sol",
  "compiler": {
    "name": "solc",
    "version": "0.4.24+commit.e67f0147.Emscripten.clang"
  },
  "schemaVersion": "2.0.1",
  "updatedAt": "2018-11-11T12:13:46.369Z"
}