{
  "contractName": "RentContractProducter",
  "abi": [
    {
      "constant": true,
      "inputs": [
        {
          "name": "",
          "type": "address"
        },
        {
          "name": "",
          "type": "uint256"
        }
      ],
      "name": "userRentContract",
      "outputs": [
        {
          "name": "",
          "type": "address"
        }
      ],
      "payable": false,
      "stateMutability": "view",
      "type": "function"
    },
    {
      "inputs": [],
      "payable": false,
      "stateMutability": "nonpayable",
      "type": "constructor"
    },
    {
      "constant": true,
      "inputs": [],
      "name": "getCount",
      "outputs": [
        {
          "name": "",
          "type": "uint256"
        }
      ],
      "payable": false,
      "stateMutability": "view",
      "type": "function"
    },
    {
      "constant": false,
      "inputs": [
        {
          "name": "_waterMeter",
          "type": "uint256"
        },
        {
          "name": "_waterFee",
          "type": "uint256"
        },
        {
          "name": "_electricityMeter",
          "type": "uint256"
        },
        {
          "name": "_electricityFee",
          "type": "uint256"
        },
        {
          "name": "_rentFee",
          "type": "uint256"
        },
        {
          "name": "_rentTerm",
          "type": "uint256"
        },
        {
          "name": "_pledgeTotal",
          "type": "uint256"
        },
        {
          "name": "_startTime",
          "type": "uint256"
        },
        {
          "name": "_endTime",
          "type": "uint256"
        },
        {
          "name": "_tenantPublicKey",
          "type": "address"
        },
        {
          "name": "_baseInfoJson",
          "type": "bytes"
        }
      ],
      "name": "createRentContract",
      "outputs": [
        {
          "name": "",
          "type": "address"
        }
      ],
      "payable": true,
      "stateMutability": "payable",
      "type": "function"
    }
  ],
  "bytecode": "0x608060405234801561001057600080fd5b5060008054600160a060020a03191633179055615f1f806100326000396000f3006080604052600436106200005a5763ffffffff7c01000000000000000000000000000000000000000000000000000000006000350416631102975981146200005f578063a87d942c1462000100578063ed9dde5a146200012a575b600080fd5b604080516020601f61014435600481810135928301849004840285018401909552818452620000e494803594602480359560443595606435956084359560a4359560c4359560e435956101043595600160a060020a03610124351695369594610164949093910191908190840183828082843750949750620001519650505050505050565b60408051600160a060020a039092168252519081900360200190f35b3480156200010d57600080fd5b5062000118620003e2565b60408051918252519081900360200190f35b3480156200013757600080fd5b50620000e4600160a060020a0360043516602435620003f5565b60003381808e11801562000165575060008d115b801562000172575060008c115b80156200017f575060008b115b80156200018c575060008a115b8015620001995750600089115b8015620001a65750600088115b8015620001b35750600087115b8015620001c05750600086115b8015620001d55750600160a060020a03851615155b8015620001e3575060008451115b15156200025157604080517f08c379a000000000000000000000000000000000000000000000000000000000815260206004820152601260248201527fe58f82e695b0e5ad98e59ca8e7a9bae580bc0000000000000000000000000000604482015290519081900360640190fd5b8d8d8d8d8d8d8d8d8d8d8b8e620002676200042d565b808d81526020018c81526020018b81526020018a815260200189815260200188815260200187815260200186815260200185815260200184600160a060020a0316600160a060020a0316815260200183600160a060020a0316600160a060020a0316815260200180602001828103825283818151815260200191508051906020019080838360005b8381101562000309578181015183820152602001620002ef565b50505050905090810190601f168015620003375780820380516001836020036101000a031916815260200191505b509d5050505050505050505050505050604051809103906000f08015801562000364573d6000803e3d6000fd5b50600160a060020a0392831660009081526001602081815260408084208054808501825590855282852001805486891673ffffffffffffffffffffffffffffffffffffffff1991821681179092559a909716845283208054928301815583529091200180549096169092179094559c9b505050505050505050505050565b3360009081526001602052604090205490565b6001602052816000526040600020818154811015156200041157fe5b600091825260209091200154600160a060020a03169150829050565b604051615ab5806200043f833901905600608060405262030d4060055560016006556021805460ff1916905560006034553480156200002c57600080fd5b5060405162005ab538038062005ab583398101604090815281516020830151918301516060840151608085015160a086015160c087015160e08801516101008901516101208a01516101408b01516101608c01516006549a9c999a98999798969795969495939492939192910190620000ae9064010000000062000419810204565b60008054600160a060020a031916736f485c8bf6fc43ea212e93bbf8ce046c7f1cb4751781558c118015620000e3575060008b115b8015620000f0575060008a115b8015620000fd5750600089115b80156200010a5750600088115b8015620001175750600087115b8015620001245750600086115b8015620001315750600085115b80156200013e5750600084115b8015620001535750600160a060020a03831615155b801562000161575060008151115b1515620001cf57604080517f08c379a000000000000000000000000000000000000000000000000000000000815260206004820152601260248201527fe58f82e695b0e5ad98e59ca8e7a9bae580bc0000000000000000000000000000604482015290519081900360640190fd5b600b805460ff1916905560108c905560128b9055601389905560118a9055600d889055620002068564010000000062000659810204565b600e805460ff9290921660ff1990921691909117905560148054601e55600f889055600c879055859055601584905560168054600160a060020a03808616600160a060020a031992831617909255601780549285169290911691909117905580516200027a90601890602084019062000e65565b5060148590556000601c55600654600554880202600402601a556040805161014081019091528060018152602001600d548152602001600081526020016000815260200160806040519081016040528060008152602001601054815260200160105481526020016000815250815260200160806040519081016040528060008152602001601154815260200160115481526020016000815250815260200160001515815260200160008152602001600081526020016000815250602260008201518160000160006101000a81548160ff021916908360038111156200035b57fe5b0217905550602082810151600183015560408084015160028401556060808501516003850155608085015180516004860155808401516005860155808301516006860155810151600785015560a08501518051600886015592830151600985015590820151600a8401550151600b82015560c0820151600c8201805460ff191691151591909117905560e0820151600d820155610100820151600e82015561012090910151600f909101555062000f439a5050505050505050505050565b600054600160a060020a031615806200044f57506000546200044d90600160a060020a03166401000000006200067b810204565b155b156200046c576200046a60006401000000006200067f810204565b505b6000809054906101000a9004600160a060020a0316600160a060020a03166338cc48316040518163ffffffff167c0100000000000000000000000000000000000000000000000000000000028152600401602060405180830381600087803b158015620004d857600080fd5b505af1158015620004ed573d6000803e3d6000fd5b505050506040513d60208110156200050457600080fd5b5051600154600160a060020a03908116911614620005d6576000809054906101000a9004600160a060020a0316600160a060020a03166338cc48316040518163ffffffff167c0100000000000000000000000000000000000000000000000000000000028152600401602060405180830381600087803b1580156200058857600080fd5b505af11580156200059d573d6000803e3d6000fd5b505050506040513d6020811015620005b457600080fd5b505160018054600160a060020a031916600160a060020a039092169190911790555b600154604080517fca6ad1e4000000000000000000000000000000000000000000000000000000008152600481018490529051600160a060020a039092169163ca6ad1e49160248082019260009290919082900301818387803b1580156200063d57600080fd5b505af115801562000652573d6000803e3d6000fd5b5050505050565b60006200066f826401000000006200069a810204565b6040015190505b919050565b3b90565b60006200069464010000000062000853810204565b92915050565b620006a462000eea565b6000808080620006bd8664010000000062000c00810204565b61ffff168552620006d96107b264010000000062000cb6810204565b8551620006f39061ffff1664010000000062000cb6810204565b039250826301e285000284019350826107b286600001510361ffff16036301e133800284019350600191505b600c60ff831611620007775784516200074390839064010000000062000cd1810204565b60ff1662015180029050858482011115620007675760ff8216602086015262000777565b928301926001909101906200071f565b600191505b6020850151855162000798919064010000000062000cd1810204565b60ff168260ff16111515620007d957858462015180011115620007c45760ff82166040860152620007d9565b6201518093909301926001909101906200077c565b620007ed8664010000000062000db2810204565b60ff166060860152620008098664010000000062000dce810204565b60ff166080860152620008258664010000000062000dda810204565b60ff1660a0860152620008418664010000000062000de5810204565b60ff1660c08601525092949350505050565b6000806200087e731d3b2638a7cc9f2cb3d298a3da7a90b67e5506ed6401000000006200067b810204565b1115620008fc5760008054600160a060020a031916731d3b2638a7cc9f2cb3d298a3da7a90b67e5506ed17905560408051808201909152600b81527f6574685f6d61696e6e65740000000000000000000000000000000000000000006020820152620008f39064010000000062000df8810204565b50600162000bfd565b60006200092673c03a2615d5efaf5f49f60b7bb6583eaec212fdf16401000000006200067b810204565b11156200099b5760008054600160a060020a03191673c03a2615d5efaf5f49f60b7bb6583eaec212fdf117905560408051808201909152600c81527f6574685f726f707374656e3300000000000000000000000000000000000000006020820152620008f39064010000000062000df8810204565b6000620009c573b7a07bcf2ba2f2703b24c0691b5278999c59ac7e6401000000006200067b810204565b111562000a3a5760008054600160a060020a03191673b7a07bcf2ba2f2703b24c0691b5278999c59ac7e17905560408051808201909152600981527f6574685f6b6f76616e00000000000000000000000000000000000000000000006020820152620008f39064010000000062000df8810204565b600062000a6473146500cfd35b22e4a392fe0adc06de1a1368ed486401000000006200067b810204565b111562000ad95760008054600160a060020a03191673146500cfd35b22e4a392fe0adc06de1a1368ed4817905560408051808201909152600b81527f6574685f72696e6b6562790000000000000000000000000000000000000000006020820152620008f39064010000000062000df8810204565b600062000b03736f485c8bf6fc43ea212e93bbf8ce046c7f1cb4756401000000006200067b810204565b111562000b39575060008054600160a060020a031916736f485c8bf6fc43ea212e93bbf8ce046c7f1cb475179055600162000bfd565b600062000b637320e12a1f859b3feae5fb2a0a32c18f5a65555bbf6401000000006200067b810204565b111562000b99575060008054600160a060020a0319167320e12a1f859b3feae5fb2a0a32c18f5a65555bbf179055600162000bfd565b600062000bc37351efaf4c8b3c9afbd5ab9f4bbc82784ab6ef8faa6401000000006200067b810204565b111562000bf9575060008054600160a060020a0319167351efaf4c8b3c9afbd5ab9f4bbc82784ab6ef8faa179055600162000bfd565b5060005b90565b6000806107b26301e133808404810190829062000c269064010000000062000cb6810204565b62000c3e61ffff841664010000000062000cb6810204565b039050806301e285000283019250806107b2830361ffff16036301e1338002830192505b8483111562000cae5762000c83600019830164010000000062000e11810204565b1562000c98576301e285008303925062000ca2565b6301e13380830392505b60018203915062000c62565b509392505050565b60001901600061019082046064830460048404030192915050565b60008260ff166001148062000ce957508260ff166003145b8062000cf857508260ff166005145b8062000d0757508260ff166007145b8062000d1657508260ff166008145b8062000d2557508260ff16600a145b8062000d3457508260ff16600c145b1562000d435750601f62000694565b8260ff166004148062000d5957508260ff166006145b8062000d6857508260ff166009145b8062000d7757508260ff16600b145b1562000d865750601e62000694565b62000d9a8264010000000062000e11810204565b1562000da95750601d62000694565b50601c92915050565b60006018603c8084045b0481151562000dc757fe5b0692915050565b6000603c808362000dbc565b6000603c8262000dc7565b6000600760046201518084040162000dc7565b805162000e0d90600290602084019062000e65565b5050565b6000600382161562000e265750600062000676565b606461ffff83160661ffff161562000e415750600162000676565b61019061ffff83160661ffff161562000e5d5750600062000676565b506001919050565b828054600181600116156101000203166002900490600052602060002090601f016020900481019282601f1062000ea857805160ff191683800117855562000ed8565b8280016001018555821562000ed8579182015b8281111562000ed857825182559160200191906001019062000ebb565b5062000ee692915062000f26565b5090565b6040805160e081018252600080825260208201819052918101829052606081018290526080810182905260a0810182905260c081019190915290565b62000bfd91905b8082111562000ee6576000815560010162000f2d565b614b628062000f536000396000f3006080604052600436106102005763ffffffff60e060020a6000350416630a17e68581146102765780631554131f146102af578063200d2ed2146102b957806327dc297e146102de5780632c55581a1461033c57806330c402761461036357806333d96f8c1461037857806338bbfa50146103ab5780633e239e1a146104475780634917dfdd1461047557806349756f921461048d5780634ac1ad78146104a5578063534f9eb3146104bd57806357ea2c0e146104c55780635bf5d54c1461054157806361da95761461055657806362ba96871461057557806365c72840146105a95780636a80dd1d146105c15780636b1f62cc146105d9578063733c4067146105f1578063792e6e5b146106065780637f7918331461060e57806383fe2b3d1461063c578063860db2ef1461065157806389d66ee6146106595780638aa001fc146107165780638c8d98a01461072e5780638df6a016146107565780639054bdec1461076b57806390644456146107a557806392d66313146107b057806398b7a7d3146107df5780639b963acd146107e7578063a324ad24146107fc578063a6f0e57714610814578063b199993714610830578063b238ad0e14610848578063b41114f21461086a578063b75fe1f21461087f578063bd0c97541461089d578063d541508314610982578063de4a03861461098a578063fa93f88314610992575b60408051338152346020820152600181830152608060608201819052601b908201527fe5b7b2e694afe4bb98e588b0e59088e5908c63616c6c5f6261636b000000000060a082015290517f565596f25d7b5651b22a8bf9e33e5d811c06f1ec0e88f9c661f9390e7cd8da199181900360c00190a1005b34801561028257600080fd5b5061028b6109aa565b6040518082600381111561029b57fe5b60ff16815260200191505060405180910390f35b6102b76109b3565b005b3480156102c557600080fd5b506102ce610baf565b6040518082600581111561029b57fe5b3480156102ea57600080fd5b5060408051602060046024803582810135601f81018590048502860185019096528585526102b7958335953695604494919390910191908190840183828082843750949750610bb89650505050505050565b34801561034857600080fd5b50610351610e58565b60408051918252519081900360200190f35b34801561036f57600080fd5b50610351610e5e565b34801561038457600080fd5b50610390600435610e64565b60408051921515835260208301919091528051918290030190f35b3480156103b757600080fd5b5060408051602060046024803582810135601f81018590048502860185019096528585526102b795833595369560449491939091019190819084018382808284375050604080516020601f89358b018035918201839004830284018301909452808352979a999881019791965091820194509250829150840183828082843750949750610e839650505050505050565b34801561045357600080fd5b5061045f600435610e88565b6040805160ff9092168252519081900360200190f35b34801561048157600080fd5b506102b7600435610ea5565b34801561049957600080fd5b506102b760043561105d565b3480156104b157600080fd5b5061045f6004356113f8565b6102b761140a565b3480156104d157600080fd5b506104dd600435611658565b604051808b60038111156104ed57fe5b60ff168152602081019a909a52506040808a01989098526060890196909652608088019490945260a0870192909252151560c086015260e08501526101008401526101208301525190819003610140019150f35b34801561054d57600080fd5b5061035161170a565b610561600435611710565b604080519115158252519081900360200190f35b34801561058157600080fd5b5061035161ffff6004351660ff60243581169060443581169060643581169060843516611ade565b3480156105b557600080fd5b5061045f600435611af9565b3480156105cd57600080fd5b50610390600435611b0e565b3480156105e557600080fd5b50610561600435611b2d565b3480156105fd57600080fd5b50610351611b42565b6102b7611b48565b34801561061a57600080fd5b5061035161ffff6004351660ff60243581169060443581169060643516611d22565b34801561064857600080fd5b50610351611d3c565b6102b7611d42565b34801561066557600080fd5b50610671600435612015565b604051808560a080838360005b8381101561069657818101518382015260200161067e565b5050505090500184600460200280838360005b838110156106c15781810151838201526020016106a9565b5050505090500183600460200280838360005b838110156106ec5781810151838201526020016106d4565b505050509050018260038111156106ff57fe5b60ff16815260200194505050505060405180910390f35b34801561072257600080fd5b5061045f6004356122f0565b34801561073a57600080fd5b5061035161ffff6004351660ff602435811690604435166122fa565b34801561076257600080fd5b50610351612314565b34801561077757600080fd5b5061035161ffff6004351660ff60243581169060443581169060643581169060843581169060a4351661231a565b6102b7600435612460565b3480156107bc57600080fd5b506107c86004356126a6565b6040805161ffff9092168252519081900360200190f35b6102b7612736565b3480156107f357600080fd5b50610351612aa9565b34801561080857600080fd5b5061045f600435612aaf565b34801561082057600080fd5b5061056161ffff60043516612ac4565b34801561083c57600080fd5b50610351600435612b12565b34801561085457600080fd5b5061045f60ff6004351661ffff60243516612b2d565b34801561087657600080fd5b50610351612bf5565b34801561088b57600080fd5b506102b7600435602435604435612bfb565b3480156108a957600080fd5b506108b2612e94565b60408051600160a060020a03808816825286166020820152908101606082018460058111156108dd57fe5b60ff168152602001836101a080838360005b838110156109075781810151838201526020016108ef565b50505050905001828103825285818151815260200191508051906020019080838360005b8381101561094357818101518382015260200161092b565b50505050905090810190601f1680156109705780820380516001836020036101000a031916815260200191505b50965050505050505060405180910390f35b6102b761303b565b6102b761317e565b34801561099e57600080fd5b5061045f60043561338b565b60215460ff1681565b601654600090600160a060020a03163314610a06576040805160e560020a62461bcd0281526020600482015260186024820152600080516020614af7833981519152604482015290519081900360640190fd5b60215460ff166003811115610a1757fe5b600314610a94576040805160e560020a62461bcd02815260206004820152602160248201527fe58f8ce696b9e69caae8bebee68890e4b880e887b4e4b88de883bde58f96e6ac60448201527fbe00000000000000000000000000000000000000000000000000000000000000606482015290519081900360840190fd5b506020546000811115610ba75760006020819055604051339183156108fc02918491818181858888f193505050501515610b33576020818155604080513381529182018390526000828201526080606083018190526012908301527fe58f96e587bae68abce98791e5a4b1e8b4a5000000000000000000000000000060a083015251600080516020614b178339815191529181900360c00190a1610bac565b601b805482900390556020805460408051338152928301919091526001828201526080606083018190526012908301527fe58f96e587bae68abce98791e68890e58a9f000000000000000000000000000060a083015251600080516020614b178339815191529181900360c00190a1610bac565b600080fd5b50565b600b5460ff1681565b6000828152600960205260408120548190819081908190819060ff1615610ca45760008881526009602090815260408083206001015483526007909152902060048101546008909101549096509450600a85870104600d54019350610c1e876002613396565b9250670de0b6b3a7640000915082848302811515610c3857fe5b60008a81526009602081815260408084206001808201805487526007855283872098909704600d9098018890558654865291852082018b9055603480549092019091556005546006546019805491909202900390558d8452919052805460ff1916905590559050610d72565b60008881526008602052604090205460ff1615610d1e57610cc487613550565b60008981526008602081815260408084206001808201805487526007855292862060020196909655603480549096019095556005546006546019805491909202900390558c8452919052825460ff19169092559055610d72565b6000888152600a602052604090205460ff1615610ba757601c80546001019055610d4661355d565b6005546006546019805491909202600202900390556000888152600a60205260409020805460ff191690555b6034546001161515610e4e57601c546000908152600760205260409020600c01805460ff19166001179055610da5613729565b601c546000908152600760209081526040918290208054600f90910154925133808252600080516020614a7783398151915294909360ff90931692600192908101846003811115610df257fe5b60ff16815292151560208401526040808401929092528203608090810160608401526009908301527fe5b7b2e68a84e8a1a8000000000000000000000000000000000000000000000060a0830152519081900360c00192509050a15b5050505050505050565b60205481565b601e5481565b6008602052600090815260409020805460019091015460ff9091169082565b505050565b60006018603c8084045b04811515610e9c57fe5b0690505b919050565b601754600160a060020a03163314610ef5576040805160e560020a62461bcd0281526020600482015260186024820152600080516020614a57833981519152604482015290519081900360640190fd5b600480600b5460ff166005811115610f0957fe5b14610f4c576040805160e560020a62461bcd02815260206004820152601e6024820152600080516020614a97833981519152604482015290519081900360640190fd5b60215460ff166003811115610f5d57fe5b60031415610fa3576040805160e560020a62461bcd02815260206004820152601e6024820152600080516020614a97833981519152604482015290519081900360640190fd5b601b54829003601f5560208281556021805460ff1916600190811791829055604051338082527f8734ad07c056f7feceb21115b19f98b21ecd2e075f3ea6945471b30df58010ae94909360ff16929190810183600381111561100157fe5b60ff16815260200182151515158152602001806020018281038252601e8152602001807fe4bfaee694b9e78ab6e68081e7ad89e5be85e7a79fe5aea2e7a1aee8aea4000081525060200194505050505060405180910390a15050565b601654600160a060020a031633146110ad576040805160e560020a62461bcd0281526020600482015260186024820152600080516020614af7833981519152604482015290519081900360640190fd5b600480600b5460ff1660058111156110c157fe5b14611104576040805160e560020a62461bcd02815260206004820152601e6024820152600080516020614a97833981519152604482015290519081900360640190fd5b60215460ff16600381111561111557fe5b6003141561115b576040805160e560020a62461bcd02815260206004820152601e6024820152600080516020614a97833981519152604482015290519081900360640190fd5b81600214156112a1576021805460ff191660021790819055604051338082527f8734ad07c056f7feceb21115b19f98b21ecd2e075f3ea6945471b30df58010ae92909160ff90911690600090602081018360038111156111b757fe5b60ff16815260200182151515158152602001806020018281038252601e8152602001807fe4b88de68ea5e58f97e688bfe4b89ce98080e59b9ee79a84e68abce98791000081525060200194505050505060405180910390a1600b5460405133808252600080516020614ab783398151915292909160ff909116906000906020810183600581111561124457fe5b60ff16815260200182151515158152602001806020018281038252601e8152602001807fe4b88de68ea5e58f97e688bfe4b89ce98080e59b9ee79a84e68abce98791000081525060200194505050505060405180910390a16113f4565b81600314156113f4576021805460ff19908116600390811792839055600b8054909216600517909155604051338082527f8734ad07c056f7feceb21115b19f98b21ecd2e075f3ea6945471b30df58010ae93909260ff909116916001916020820190849081111561130e57fe5b60ff16815260200182151515158152602001806020018281038252601b8152602001807fe68ea5e58f97e688bfe4b89ce98080e59b9ee79a84e68abce98791000000000081525060200194505050505060405180910390a1600b5460405133808252600080516020614ab783398151915292909160ff909116906001906020810183600581111561139b57fe5b60ff1681526020018215151515815260200180602001828103825260158152602001807fe7a79fe8b581e59088e5908ce5b7b2e5ae8ce68890000000000000000000000081525060200194505050505060405180910390a15b5050565b60006007600462015180840401610e9c565b601754600090600160a060020a0316331461145d576040805160e560020a62461bcd0281526020600482015260186024820152600080516020614a57833981519152604482015290519081900360640190fd5b60215460ff16600381111561146e57fe5b6003146114eb576040805160e560020a62461bcd02815260206004820152602160248201527fe58f8ce696b9e69caae8bebee68890e4b880e887b4e4b88de883bde58f96e6ac60448201527fbe00000000000000000000000000000000000000000000000000000000000000606482015290519081900360840190fd5b600480600b5460ff1660058111156114ff57fe5b14611542576040805160e560020a62461bcd02815260206004820152601e6024820152600080516020614a97833981519152604482015290519081900360640190fd5b601f5491506000821115610ba7576000601f819055604051339184156108fc02918591818181858888f1935050505015156115e457601f82905560408051338152602081018490526000818301526080606082018190526012908201527fe58f96e587bae68abce98791e5a4b1e8b4a5000000000000000000000000000060a08201529051600080516020614b178339815191529181900360c00190a16113f4565b601b80548390039055601f546040805133815260208101929092526001828201526080606083018190526012908301527fe58f96e587bae68abce98791e68890e58a9f000000000000000000000000000060a083015251600080516020614b178339815191529181900360c00190a16113f4565b6007602081815260009283526040928390208054600182015460028301546003840154875160808082018a52600487015482526005870154828901526006870154828b01529786015460608083019190915289519889018a5260088701548952600987015497890197909752600a86015498880198909852600b85015495870195909552600c840154600d850154600e860154600f9096015460ff95861699949893979694959394939092169290918a565b601c5481565b601754600090819081908190600160a060020a03163314611769576040805160e560020a62461bcd0281526020600482015260186024820152600080516020614a57833981519152604482015290519081900360640190fd5b8460028060008381526007602052604090205460ff16600381111561178a57fe5b146117cd576040805160e560020a62461bcd02815260206004820152601e6024820152600080516020614a97833981519152604482015290519081900360640190fd5b6000878152600760205260408120600f8101549096509450849350831115610ba7576000600f86018190558781526007602052604090208554815487929160ff1690829060ff1916600183600381111561182357fe5b0217905550600182810154908201556002808301549082015560038083015490820155600480830154908201556005808301549082015560068083015490820155600780830154908201556008808301549082015560098083015490820155600a8083015490820155600b8083015490820155600c80830154908201805460ff191660ff9092161515919091179055600d8083015490820155600e8083015490820155600f9182015491015560405133906108fc8515029085906000818181858888f193505050501515611a1b57600f850183905560008781526007602052604090208554815487929160ff1690829060ff1916600183600381111561192557fe5b0217905550600182810154908201556002808301549082015560038083015490820155600480830154908201556005808301549082015560068083015490820155600780830154908201556008808301549082015560098083015490820155600a8083015490820155600b8083015490820155600c80830154908201805460ff191660ff9092161515919091179055600d8083015490820155600e8083015490820155600f91820154910155604080513381526020810185905260008183015290517f772f6e198974e68bf6f21334cdb7e0411ed95c9a2c7d78906bbe7b9cffcfe8f9916060908290030190a160009550611ad4565b600087815260076020908152604091829020805460ff19166003908117808355600f90920154935133808252600080516020614a7783398151915295909460ff90941693600193919291908201908590811115611a7457fe5b60ff1681529215156020840152604080840192909252820360809081016060840152600f908301527fe5b7b2e58f96e587bae68abce98791000000000000000000000000000000000060a0830152519081900360c00192509050a1600195505b5050505050919050565b6000611aef8686868686600061231a565b9695505050505050565b6000611b04826139be565b6040015192915050565b6009602052600090815260409020805460019091015460ff9091169082565b600a6020526000908152604090205460ff1681565b601f5481565b6000600580600b5460ff166005811115611b5e57fe5b14611ba1576040805160e560020a62461bcd02815260206004820152601e6024820152600080516020614a97833981519152604482015290519081900360640190fd5b601754600160a060020a03163314611bf1576040805160e560020a62461bcd0281526020600482015260186024820152600080516020614a57833981519152604482015290519081900360640190fd5b60195491506000821115610ba75760006019819055604051339184156108fc02918591818181858888f193505050501515611ca557601982905560408051338152602081018490526000818301526080606082018190526018908201527fe58f96e587bae59088e5908ce4bd99e9a29de5a4b1e8b4a5000000000000000060a082015290517f6263c98c27720a79e34f20c37d391f66a8e80b9698b38f8158cb429cb3802d6e9181900360c00190a16113f4565b6019546040805133815260208101929092526001828201526080606083018190526018908301527fe58f96e587bae59088e5908ce4bd99e9a29de68890e58a9f000000000000000060a0830152517f6263c98c27720a79e34f20c37d391f66a8e80b9698b38f8158cb429cb3802d6e9181900360c00190a16113f4565b6000611d338585858560008061231a565b95945050505050565b60195481565b601754600090600160a060020a0316331480611d685750601654600160a060020a031633145b1515611dac576040805160e560020a62461bcd02815260206004820152601e6024820152600080516020614ad7833981519152604482015290519081900360640190fd5b600380600b5460ff166005811115611dc057fe5b14611e03576040805160e560020a62461bcd02815260206004820152601e6024820152600080516020614a97833981519152604482015290519081900360640190fd5b6001600f5403601c541415611ee657600091505b601c548211611ee157600260008381526007602052604090205460ff166003811115611e3f57fe5b14611ed657600b5460405133808252600080516020614ab783398151915292909160ff9091169060009060208101836005811115611e7957fe5b60ff1681526020018215151515815260200180602001828103825260158152602001807fe5ad98e59ca8e69caae694afe4bb98e7a79fe98791000000000000000000000081525060200194505050505060405180910390a16113f4565b600190910190611e17565b611f78565b600b5460405133808252600080516020614ab783398151915292909160ff9091169060009060208101836005811115611f1b57fe5b60ff1681526020018215151515815260200180602001828103825260128152602001807fe69caae588b0e7baa6e5ae9ae7a79fe69c9f000000000000000000000000000081525060200194505050505060405180910390a16113f4565b600b805460ff19166004179081905560405133808252600080516020614ab783398151915292909160ff9091169060019060208101836005811115611fb957fe5b60ff16815260200182151515158152602001806020018281038252600c8152602001807fe4bfaee694b9e68890e58a9f000000000000000000000000000000000000000081525060200194505050505060405180910390a15050565b61201d614879565b612025614898565b61202d614898565b60006120376148b7565b61203f614919565b612047614919565b601754600160a060020a031633148061206a5750601654600160a060020a031633145b15156120ae576040805160e560020a62461bcd02815260206004820152601e6024820152600080516020614ad7833981519152604482015290519081900360640190fd5b6001600b5460ff1660058111156120c157fe5b141580156120e057506002600b5460ff1660058111156120dd57fe5b14155b151561215b576040805160e560020a62461bcd028152602060048201526024808201527fe5bd93e5898de78ab6e68081e6b2a1e69c89e7a79fe98791e8b4a6e58d95e79460448201527f9fe6889000000000000000000000000000000000000000000000000000000000606482015290519081900360840190fd5b60008881526007602052604090819020815161014081019092528054829060ff16600381111561218757fe5b600381111561219257fe5b815260018201546020808301919091526002830154604080840191909152600384015460608085019190915281516080818101845260048701548252600587015482860152600687015482850152600787015482840152808601919091528251808201845260088701548152600987015481860152600a87015481850152600b8701548184015260a080870191909152600c87015460ff16151560c0870152600d87015460e080880191909152600e880154610100880152600f90970154610120968701528782015188820151855192830186528987015183529789015182870152888501518286015288840151828501529588015181830152835180830185528651815286860151818701528685015181860152958301518684015283519182018452865182528685015194820194909452858301519281019290925293840151938101939093529251929b909a50909850909650945050505050565b6000603c82610e9c565b600061230c848484600080600061231a565b949350505050565b60345481565b600080612325614942565b6107b291505b8861ffff168261ffff16101561236c5761234482612ac4565b15612357576301e2850083019250612361565b6301e13380830192505b60019091019061232b565b601f815261237989612ac4565b1561238a57601d6020820152612392565b601c60208201525b601f60408201819052601e606083018190526080830182905260a0830181905260c0830182905260e0830182905261010083018190526101208301829052610140830152610160820152600191505b8760ff168261ffff161015612422578061ffff600019840116600c811061240457fe5b602002015160ff1662015180028301925081806001019250506123e1565b6001870360ff166201518002830192508560ff16610e1002830192508460ff16603c02830192508360ff168301925082925050509695505050505050565b601654600160a060020a031633146124b0576040805160e560020a62461bcd0281526020600482015260186024820152600080516020614af7833981519152604482015290519081900360640190fd5b8060018060008381526007602052604090205460ff1660038111156124d157fe5b14612514576040805160e560020a62461bcd02815260206004820152601e6024820152600080516020614a97833981519152604482015290519081900360640190fd5b6000838152600760205260409020600d015434146125d65760008381526007602090815260408083208054600f90910154915133808252600080516020614a7783398151915295909460ff909316939092909190810184600381111561257657fe5b60ff1681529215156020840152604080840192909252820360809081016060840152601e908301527fe7a79fe98791e4b88ee5ba94e7bcb4e98791e9a29de4b88de4b880e887b4000060a0830152519081900360c00192509050a1600080fd5b600083815260076020908152604091829020600f810180543490810191829055600d83018054919091039055815460ff191660021780835542600393840155935133808252600080516020614a7783398151915295909460ff909116936001939291820190859081111561264657fe5b60ff1681529215156020840152604080840192909252820360809081016060840152600f908301527fe5b7b2e694afe4bb98e7a79fe98791000000000000000000000000000000000060a0830152519081900360c00192509050a1505050565b6000806107b26301e13380840481019082906126c190612b12565b6126ce8361ffff16612b12565b039050806301e285000283019250806107b2830361ffff16036301e1338002830192505b8483111561272e5761270660018303612ac4565b15612719576301e2850083039250612723565b6301e13380830392505b6001820391506126f2565b509392505050565b601654600160a060020a03163314612786576040805160e560020a62461bcd0281526020600482015260186024820152600080516020614af7833981519152604482015290519081900360640190fd5b600280600b5460ff16600581111561279a57fe5b146127dd576040805160e560020a62461bcd02815260206004820152601e6024820152600080516020614a97833981519152604482015290519081900360640190fd5b601b8054340190819055600c54600491111561288557600b5460405133808252600080516020614ab783398151915292909160ff909116906000906020810183600581111561282857fe5b60ff1681526020018215151515815260200180602001828103825260158152602001807fe694afe4bb98e79a84e68abce98791e8bf87e5a49a000000000000000000000081525060200194505050505060405180910390a16129ec565b600c54601b54141561295e57600b805460ff191660031790556128a661355d565b600b5460405133808252600080516020614ab783398151915292909160ff90911690600190602081018360058111156128db57fe5b60ff1681526020018215151515815260200180602001828103825260288152602001807fe5b7b2e5ae8ce68890e68abce98791e79a84e694afe4bb982ce8afb7e694afe481526020017fbb98e7a79fe9879100000000000000000000000000000000000000000000000081525060400194505050505060405180910390a16129ec565b600b5460405133808252600080516020614ab783398151915292909160ff909116906000906020810183600581111561299357fe5b60ff1681526020018215151515815260200180602001828103825260158152602001807fe694afe4bb98e79a84e68abce98791e8bf87e5b091000000000000000000000081525060200194505050505060405180910390a15b60065460055482020260195410156113f45760065460055460195460408051338152928502909302602083015281830152608060608201819052602e908201527fe5bd93e5898de8b4a6e688b7e4bd99e9a29de4b88de8b6b32ce8afb7e59091e560a08201527f9088e7baa6e59091e8bdace8b4a600000000000000000000000000000000000060c082015290517f0b1088a39f9440b0967d0c1134d6856d576fe600b744c7650a6aab8c3336dc359181900360e00190a1600080fd5b601b5481565b6000612aba826139be565b6020015192915050565b60006003821615612ad757506000610ea0565b606461ffff83160661ffff1615612af057506001610ea0565b61019061ffff83160661ffff1615612b0a57506000610ea0565b506001919050565b60001901600061019082046064830460048404030192915050565b60008260ff1660011480612b4457508260ff166003145b80612b5257508260ff166005145b80612b6057508260ff166007145b80612b6e57508260ff166008145b80612b7c57508260ff16600a145b80612b8a57508260ff16600c145b15612b975750601f612bef565b8260ff1660041480612bac57508260ff166006145b80612bba57508260ff166009145b80612bc857508260ff16600b145b15612bd55750601e612bef565b612bde82612ac4565b15612beb5750601d612bef565b50601c5b92915050565b601d5481565b60175460009081908190819081908190600160a060020a0316331480612c2b5750601654600160a060020a031633145b1515612c6f576040805160e560020a62461bcd02815260206004820152601e6024820152600080516020614ad7833981519152604482015290519081900360640190fd5b50505060008681526007602081905260408083206000198a01845290832060058101546009820154600684018b9055601254918b03918202600480860191909155948401829055600a84018a9055601354908a03908102600880860191909155600b85018290558454600160ff199182168117808855988f9052959a5093985085890197508801959194909390928992839260ff82169284921690836003811115612d1657fe5b0217905550600182810154908201556002808301549082015560038083015490820155600480830154908201556005808301549082015560068083015490820155600780830154908201556008808301549082015560098083015490820155600a8083015490820155600b8083015490820155600c80830154908201805460ff191660ff9092161515919091179055600d8083015490820155600e8083015490820155600f91820154910155612dcb8a613b0c565b6006546005548202026019541015612e885760065460055460195460408051338152928502909302602083015281830152608060608201819052602e908201527fe5bd93e5898de8b4a6e688b7e4bd99e9a29de4b88de8b6b32ce8afb7e59091e560a08201527f9088e7baa6e59091e8bdace8b4a600000000000000000000000000000000000060c082015290517f0b1088a39f9440b0967d0c1134d6856d576fe600b744c7650a6aab8c3336dc359181900360e00190a1600080fd5b50505050505050505050565b60008060606000612ea3614962565b601754600160a060020a0316331480612ec65750601654600160a060020a031633145b1515612f0a576040805160e560020a62461bcd02815260206004820152601e6024820152600080516020614ad7833981519152604482015290519081900360640190fd5b600b5460188054604080516020601f6002600019600187161561010002019095169490940493840181900481028201810190925282815260ff9094169550830182828015612f995780601f10612f6e57610100808354040283529160200191612f99565b820191906000526020600020905b815481529060010190602001808311612f7c57829003601f168201915b5050601754601654604080516101a08101825260145481526015546020820152600f54918101919091526010546060820152601254608082015260115460a082015260135460c0820152600d5460e0820152600e5460ff16610100820152600c54610120820152601e54610140820152601a54610160820152601c54610180820152600160a060020a039182169c919092169a50949850959650929350505050565b601654600160a060020a0316331461308b576040805160e560020a62461bcd0281526020600482015260186024820152600080516020614af7833981519152604482015290519081900360640190fd5b600180600b5460ff16600581111561309f57fe5b146130e2576040805160e560020a62461bcd02815260206004820152601e6024820152600080516020614a97833981519152604482015290519081900360640190fd5b600b805460ff19166002179081905560405133808252600080516020614ab783398151915292909160ff909116906001906020810183600581111561312357fe5b60ff16815260200182151515158152602001806020018281038252600c8152602001807fe7adbee5908de68890e58a9f000000000000000000000000000000000000000081525060200194505050505060405180910390a150565b601754600160a060020a031633146131ce576040805160e560020a62461bcd0281526020600482015260186024820152600080516020614a57833981519152604482015290519081900360640190fd5b600080600b5460ff1660058111156131e257fe5b14613225576040805160e560020a62461bcd02815260206004820152601e6024820152600080516020614a97833981519152604482015290519081900360640190fd5b601a5434106132d3576019805434019055600b805460ff191660019081179182905560405133808252600080516020614ab783398151915293909260ff909116916020810183600581111561327657fe5b60ff1681526020018215151515815260200180602001828103825260128152602001807fe59088e5908ce6bf80e6b4bbe68890e58a9f000000000000000000000000000081525060200194505050505060405180910390a1610bac565b600b5460405133808252600080516020614ab783398151915292909160ff909116906000906020810183600581111561330857fe5b60ff1681526020018215151515815260200180602001828103825260218152602001807fe59088e5908ce6bf80e6b4bbe5a4b1e8b4a5efbc8ce4bba5e5a4aae8bf87e5b081526020017f910000000000000000000000000000000000000000000000000000000000000081525060400194505050505060405180910390a1610bac565b6000603c8083610e92565b6000828180805b83518110156135335783517f3000000000000000000000000000000000000000000000000000000000000000908590839081106133d657fe5b90602001015160f860020a900460f860020a027effffffffffffffffffffffffffffffffffffffffffffffffffffffffffffff19161015801561347c575083517f39000000000000000000000000000000000000000000000000000000000000009085908390811061344457fe5b90602001015160f860020a900460f860020a027effffffffffffffffffffffffffffffffffffffffffffffffffffffffffffff191611155b156134d557811561349b5785151561349357613533565b600019909501945b600a83029250603084828151811015156134b157fe5b90602001015160f860020a900460f860020a0260f860020a9004038301925061352b565b83818151811015156134e357fe5b90602001015160f860020a900460f860020a027effffffffffffffffffffffffffffffffffffffffffffffffffffffffffffff1916602e60f860020a02141561352b57600191505b60010161339d565b60008611156135455785600a0a830292505b509095945050505050565b6000612bef826000613396565b601c54151561365557601c54600090815260076020526040902060228054825491929160ff90911690829060ff1916600183600381111561359a57fe5b0217905550600182810154908201556002808301549082015560038083015490820155600480830154908201556005808301549082015560068083015490820155600780830154908201556008808301549082015560098083015490820155600a8083015490820155600b8083015490820155600c80830154908201805460ff191660ff9092161515919091179055600d8083015490820155600e8083015490820155600f918201549101556136506000613b0c565b613727565b6022805460ff19908116909155601c54600019810160009081526007602081905260408083206005808201546027908155602886815560099384015482559686529290942080548716815560235460018201556024546002820155602554600382015560265460048201559154938201939093559254600684015560295490830155602a546008830155602b5490820155602c54600a820155602d54600b820155602e54600c8201805490931660ff909116151517909155602f54600d820155603054600e820155603154600f909101555b565b6017546000908190819081908190600160a060020a03163314806137575750601654600160a060020a031633145b151561379b576040805160e560020a62461bcd02815260206004820152601e6024820152600080516020614ad7833981519152604482015290519081900360640190fd5b600e54601e5460ff90911695506137b1906126a6565b93506137be601e54612aaf565b92508260ff16600c14156137d95760019384019392506137e0565b8260010192505b8260ff166002141561382e5760038416151561381257601d8560ff16111561380d57601d945062263b8091505b613829565b601c8560ff16111561382957601c94506224ea0091505b613886565b8260ff166004148061384357508260ff166006145b8061385157508260ff166009145b8061385f57508260ff16600b145b1561387f57601e8560ff16111561382957601e945062278d009150613886565b6228de8091505b6001600f5403601c5410156139b157613983826040805190810160405280600381526020017f55524c000000000000000000000000000000000000000000000000000000000081525060a060405190810160405280607b81526020017f6a736f6e28687474703a2f2f6170692e6b3738302e636f6d3a38382f3f61707081526020017f3d6c6966652e74696d65266170706b65793d3130303033267369676e3d62353981526020017f626333656636313931656239663734376464346538336339396632613426666f81526020017f726d61743d6a736f6e292e726573756c742e74696d657374616d700000000000815250600554600202613d33565b6000818152600a60205260409020805460ff1916600117905590506139a98484876122fa565b601e556139b7565b6000601e555b5050505050565b6139c6614982565b60008080806139d4866126a6565b61ffff1685526139e56107b2612b12565b85516139f49061ffff16612b12565b039250826301e285000284019350826107b286600001510361ffff16036301e133800284019350600191505b600c60ff831611613a6a57613a39828660000151612b2d565b60ff1662015180029050858482011115613a5b5760ff82166020860152613a6a565b92830192600190910190613a20565b600191505b613a8185602001518660000151612b2d565b60ff168260ff16111515613abe57858462015180011115613aaa5760ff82166040860152613abe565b620151809390930192600190910190613a6f565b613ac786610e88565b60ff166060860152613ad88661338b565b60ff166080860152613ae9866122f0565b60ff1660a0860152613afa866113f8565b60ff1660c08601525092949350505050565b600080613bd36040805190810160405280600381526020017f55524c0000000000000000000000000000000000000000000000000000000000815250608060405190810160405280604981526020017f6a736f6e2868747470733a2f2f6d696e2d6170692e63727970746f636f6d706181526020017f72652e636f6d2f646174612f70726963653f6673796d3d455448267473796d7381526020017f3d434e59292e434e590000000000000000000000000000000000000000000000815250600554614135565b9150613cbf6040805190810160405280600381526020017f55524c000000000000000000000000000000000000000000000000000000000081525060a060405190810160405280607b81526020017f6a736f6e28687474703a2f2f6170692e6b3738302e636f6d3a38382f3f61707081526020017f3d6c6966652e74696d65266170706b65793d3130303033267369676e3d62353981526020017f626333656636313931656239663734376464346538336339396632613426666f81526020017f726d61743d6a736f6e292e726573756c742e74696d657374616d700000000000815250600554614135565b604080518082018252600180825260209182018790526032805460ff1990811683178083556033998a55600098895260098552858920805460ff92831615159084161781558a5490850155958852600890935292909520915482549316151592169190911781559254929091019190915550565b600080548190600160a060020a03161580613d605750600054613d5e90600160a060020a0316614534565b155b15613d7157613d6f6000614538565b505b6000809054906101000a9004600160a060020a0316600160a060020a03166338cc48316040518163ffffffff1660e060020a028152600401602060405180830381600087803b158015613dc357600080fd5b505af1158015613dd7573d6000803e3d6000fd5b505050506040513d6020811015613ded57600080fd5b5051600154600160a060020a03908116911614613ea2576000809054906101000a9004600160a060020a0316600160a060020a03166338cc48316040518163ffffffff1660e060020a028152600401602060405180830381600087803b158015613e5657600080fd5b505af1158015613e6a573d6000803e3d6000fd5b505050506040513d6020811015613e8057600080fd5b505160018054600160a060020a031916600160a060020a039092169190911790555b600154604080517f2ef3accc0000000000000000000000000000000000000000000000000000000081526024810186905260048101918252875160448201528751600160a060020a0390931692632ef3accc9289928892829160640190602086019080838360005b83811015613f22578181015183820152602001613f0a565b50505050905090810190601f168015613f4f5780820380516001836020036101000a031916815260200191505b509350505050602060405180830381600087803b158015613f6f57600080fd5b505af1158015613f83573d6000803e3d6000fd5b505050506040513d6020811015613f9957600080fd5b50519050670de0b6b3a76400003a840201811115613fba576000915061412c565b6001546040517fc51be90f0000000000000000000000000000000000000000000000000000000081526004810188815260648201869052608060248301908152885160848401528851600160a060020a039094169363c51be90f9386938c938c938c938c939291604482019160a40190602088019080838360005b8381101561404d578181015183820152602001614035565b50505050905090810190601f16801561407a5780820380516001836020036101000a031916815260200191505b50838103825285518152855160209182019187019080838360005b838110156140ad578181015183820152602001614095565b50505050905090810190601f1680156140da5780820380516001836020036101000a031916815260200191505b5096505050505050506020604051808303818588803b1580156140fc57600080fd5b505af1158015614110573d6000803e3d6000fd5b50505050506040513d602081101561412757600080fd5b505191505b50949350505050565b600080548190600160a060020a03161580614162575060005461416090600160a060020a0316614534565b155b15614173576141716000614538565b505b6000809054906101000a9004600160a060020a0316600160a060020a03166338cc48316040518163ffffffff1660e060020a028152600401602060405180830381600087803b1580156141c557600080fd5b505af11580156141d9573d6000803e3d6000fd5b505050506040513d60208110156141ef57600080fd5b5051600154600160a060020a039081169116146142a4576000809054906101000a9004600160a060020a0316600160a060020a03166338cc48316040518163ffffffff1660e060020a028152600401602060405180830381600087803b15801561425857600080fd5b505af115801561426c573d6000803e3d6000fd5b505050506040513d602081101561428257600080fd5b505160018054600160a060020a031916600160a060020a039092169190911790555b600154604080517f2ef3accc0000000000000000000000000000000000000000000000000000000081526024810186905260048101918252875160448201528751600160a060020a0390931692632ef3accc9289928892829160640190602086019080838360005b8381101561432457818101518382015260200161430c565b50505050905090810190601f1680156143515780820380516001836020036101000a031916815260200191505b509350505050602060405180830381600087803b15801561437157600080fd5b505af1158015614385573d6000803e3d6000fd5b505050506040513d602081101561439b57600080fd5b50519050670de0b6b3a76400003a8402018111156143bc576000915061272e565b6001546040517fc51be90f00000000000000000000000000000000000000000000000000000000815260006004820181815260648301879052608060248401908152895160848501528951600160a060020a039095169463c51be90f948794938c938c938c93604481019160a49091019060208801908083838c5b8381101561444f578181015183820152602001614437565b50505050905090810190601f16801561447c5780820380516001836020036101000a031916815260200191505b50838103825285518152855160209182019187019080838360005b838110156144af578181015183820152602001614497565b50505050905090810190601f1680156144dc5780820380516001836020036101000a031916815260200191505b5096505050505050506020604051808303818588803b1580156144fe57600080fd5b505af1158015614512573d6000803e3d6000fd5b50505050506040513d602081101561452957600080fd5b505195945050505050565b3b90565b6000612bef60008061455d731d3b2638a7cc9f2cb3d298a3da7a90b67e5506ed614534565b11156145ce5760008054600160a060020a031916731d3b2638a7cc9f2cb3d298a3da7a90b67e5506ed17905560408051808201909152600b81527f6574685f6d61696e6e657400000000000000000000000000000000000000000060208201526145c690614866565b506001614863565b60006145ed73c03a2615d5efaf5f49f60b7bb6583eaec212fdf1614534565b11156146565760008054600160a060020a03191673c03a2615d5efaf5f49f60b7bb6583eaec212fdf117905560408051808201909152600c81527f6574685f726f707374656e33000000000000000000000000000000000000000060208201526145c690614866565b600061467573b7a07bcf2ba2f2703b24c0691b5278999c59ac7e614534565b11156146de5760008054600160a060020a03191673b7a07bcf2ba2f2703b24c0691b5278999c59ac7e17905560408051808201909152600981527f6574685f6b6f76616e000000000000000000000000000000000000000000000060208201526145c690614866565b60006146fd73146500cfd35b22e4a392fe0adc06de1a1368ed48614534565b11156147665760008054600160a060020a03191673146500cfd35b22e4a392fe0adc06de1a1368ed4817905560408051808201909152600b81527f6574685f72696e6b65627900000000000000000000000000000000000000000060208201526145c690614866565b6000614785736f485c8bf6fc43ea212e93bbf8ce046c7f1cb475614534565b11156147b9575060008054600160a060020a031916736f485c8bf6fc43ea212e93bbf8ce046c7f1cb4751790556001614863565b60006147d87320e12a1f859b3feae5fb2a0a32c18f5a65555bbf614534565b111561480c575060008054600160a060020a0319167320e12a1f859b3feae5fb2a0a32c18f5a65555bbf1790556001614863565b600061482b7351efaf4c8b3c9afbd5ab9f4bbc82784ab6ef8faa614534565b111561485f575060008054600160a060020a0319167351efaf4c8b3c9afbd5ab9f4bbc82784ab6ef8faa1790556001614863565b5060005b90565b80516113f49060029060208401906149be565b60a0604051908101604052806005906020820280388339509192915050565b6080604051908101604052806004906020820280388339509192915050565b60408051610200810190915280600081526020016000815260200160008152602001600081526020016148e8614919565b81526020016148f5614919565b81526020016000151581526020016000815260200160008152602001600081525090565b608060405190810160405280600081526020016000815260200160008152602001600081525090565b61018060405190810160405280600c906020820280388339509192915050565b6101a060405190810160405280600d906020820280388339509192915050565b6040805160e081018252600080825260208201819052918101829052606081018290526080810182905260a0810182905260c081019190915290565b828054600181600116156101000203166002900490600052602060002090601f016020900481019282601f106149ff57805160ff1916838001178555614a2c565b82800160010185558215614a2c579182015b82811115614a2c578251825591602001919060010190614a11565b50614a38929150614a3c565b5090565b61486391905b80821115614a385760008155600101614a425600e58faae69c89e688bfe4b89ce6898de883bde6938de4bd9c0000000000000000ea787e35d90020bf762c8b9eaf3bb3dc0e76d9c374b2c7acb33749db6b5091a9e8afa5e6938de4bd9ce4b88de7aca6e59088e5bd93e5898de78ab6e6808100009687deedb2ec361db89057dc6a602fb94263d090f6937fd20ef4f4bcf54de656e4bda0e4b88de698afe8afa5e59088e5908ce79a84e58f82e4b88ee880850000e58faae69c89e7a79fe5aea2e6898de883bde6938de4bd9c0000000000000000d0517dbc6ef2d88069cb580c2a9fc4e9abe56cb9252954993351f447377c7b1ea165627a7a72305820a762e3254647afddaad3eeebefa90a51d8f10e500bf35694a6f24e579124b26b0029a165627a7a72305820921ca7a6fe58c552dec968c4d00296262ee76a6ed61d647334f39771102493b50029",
  "source": "pragma solidity ^0.4.0;\n\nimport './RentContract.sol';\n\n//gas:6523956\ncontract RentContractProducter{\n\n    address owner;\n    constructor() public{\n        owner = msg.sender;\n    }\n\n    mapping(address => RentContract[]) public userRentContract;\n\n    function getCount() view public returns(uint) {\n        return userRentContract[msg.sender].length;\n    }\n\n    //gas:4543967\n    function createRentContract(uint _waterMeter, uint _waterFee, uint _electricityMeter,\n        uint _electricityFee, uint _rentFee, uint _rentTerm, uint _pledgeTotal,\n        uint256 _startTime, uint256 _endTime, address _tenantPublicKey,\n        bytes _baseInfoJson) payable public returns(address){\n        //oricalize\n        address currentUser = msg.sender;\n\n        require(_waterMeter > 0 && _waterFee > 0 && _electricityMeter > 0 && _electricityFee > 0\n        && _rentFee > 0 && _rentTerm > 0 && _pledgeTotal > 0\n        && _startTime > 0 && _endTime > 0 && _tenantPublicKey != address(0)\n        && _baseInfoJson.length > 0, \"\");\n\n        RentContract rentContract = new RentContract(_waterMeter, _waterFee, _electricityMeter,\n            _electricityFee, _rentFee, _rentTerm, _pledgeTotal,\n            _startTime, _endTime, _tenantPublicKey,currentUser, _baseInfoJson);\n\n        userRentContract[currentUser].push(rentContract);\n        userRentContract[_tenantPublicKey].push(rentContract);\n        return rentContract;\n    }\n}",
  "sourcePath": "/Users/chenqilong/Desktop/MUI/contracts/RentContractProducer.sol",
  "compiler": {
    "name": "solc",
    "version": "0.4.24+commit.e67f0147.Emscripten.clang"
  },
  "schemaVersion": "2.0.1",
  "updatedAt": "2018-10-29T03:24:00.065Z"
}