{
  "contractName": "StringArrayStorage",
  "abi": [
    {
      "constant": true,
      "inputs": [
        {
          "name": "",
          "type": "uint256"
        }
      ],
      "name": "arr",
      "outputs": [
        {
          "name": "",
          "type": "string"
        }
      ],
      "payable": false,
      "stateMutability": "view",
      "type": "function"
    },
    {
      "constant": true,
      "inputs": [],
      "name": "s",
      "outputs": [
        {
          "name": "",
          "type": "string"
        }
      ],
      "payable": false,
      "stateMutability": "view",
      "type": "function"
    },
    {
      "inputs": [],
      "payable": false,
      "stateMutability": "nonpayable",
      "type": "constructor"
    },
    {
      "constant": true,
      "inputs": [],
      "name": "getArrLength",
      "outputs": [
        {
          "name": "",
          "type": "uint256"
        }
      ],
      "payable": false,
      "stateMutability": "view",
      "type": "function"
    },
    {
      "constant": false,
      "inputs": [
        {
          "name": "_value",
          "type": "string"
        }
      ],
      "name": "setStrArr",
      "outputs": [],
      "payable": false,
      "stateMutability": "nonpayable",
      "type": "function"
    },
    {
      "constant": true,
      "inputs": [
        {
          "name": "_from",
          "type": "uint256"
        },
        {
          "name": "_to",
          "type": "uint256"
        }
      ],
      "name": "getAsBytes",
      "outputs": [
        {
          "name": "",
          "type": "bytes"
        }
      ],
      "payable": false,
      "stateMutability": "view",
      "type": "function"
    }
  ],
  "bytecode": "0x60e0604052602e608081905260008051602062000b1683398151915260a09081527f51435037426831425674745a625500000000000000000000000000000000000060c0526100519160009190610258565b5034801561005e57600080fd5b506001805480820180835560009290925260408051606081018252602e80825260008051602062000b16833981519152602083019081527f51435037426831425674745a625500000000000000000000000000000000000092909301919091526100da9260008051602062000b36833981519152019190610258565b50506001805480820180835560009290925260408051606081018252602e80825260008051602062000b16833981519152602083019081527f51435037426831425674745a625500000000000000000000000000000000000092909301919091526101579260008051602062000b36833981519152019190610258565b50506001805480820180835560009290925260408051606081018252602e80825260008051602062000b16833981519152602083019081527f51435037426831425674745a625500000000000000000000000000000000000092909301919091526101d49260008051602062000b36833981519152019190610258565b50506001805480820180835560009290925260408051606081018252602e80825260008051602062000b16833981519152602083019081527f51435037426831425674745a625500000000000000000000000000000000000092909301919091526102519260008051602062000b36833981519152019190610258565b50506102f3565b828054600181600116156101000203166002900490600052602060002090601f016020900481019282601f1061029957805160ff19168380011785556102c6565b828001600101855582156102c6579182015b828111156102c65782518255916020019190600101906102ab565b506102d29291506102d6565b5090565b6102f091905b808211156102d257600081556001016102dc565b90565b61081380620003036000396000f30060806040526004361061006c5763ffffffff7c010000000000000000000000000000000000000000000000000000000060003504166305658818811461007157806327e9b1a0146100cc57806371e5ee5f146100f35780637b9e5bec1461018057806386b714e21461019b575b600080fd5b34801561007d57600080fd5b506040805160206004803580820135601f81018490048402850184019095528484526100ca9436949293602493928401919081908401838280828437509497506101b09650505050505050565b005b3480156100d857600080fd5b506100e16101f8565b60408051918252519081900360200190f35b3480156100ff57600080fd5b5061010b6004356101ff565b6040805160208082528351818301528351919283929083019185019080838360005b8381101561014557818101518382015260200161012d565b50505050905090810190601f1680156101725780820380516001836020036101000a031916815260200191505b509250505060405180910390f35b34801561018c57600080fd5b5061010b6004356024356102a6565b3480156101a757600080fd5b5061010b61061e565b6001805480820180835560009290925282516101f3917fb10e2d527612073b26eecdfd717e6a320cf44b4afac2b0732d9fcbe2b7fa0cf60190602085019061074f565b505050565b6001545b90565b600180548290811061020d57fe5b600091825260209182902001805460408051601f600260001961010060018716150201909416939093049283018590048502810185019091528181529350909183018282801561029e5780601f106102735761010080835404028352916020019161029e565b820191906000526020600020905b81548152906001019060200180831161028157829003601f168201915b505050505081565b606060006060600080600060606000806000808c101580156102c857508b8b10155b80156102d657506001548b11155b15156102e157600080fd5b600098508b95505b8a6001018610156103ce57600180548790811061030257fe5b600091825260209182902001805460408051601f60026000196101006001871615020190941693909304928301859004850281018501909152818152928301828280156103905780601f1061036557610100808354040283529160200191610390565b820191906000526020600020905b81548152906001019060200180831161037357829003601f168201915b505050505097506103a18851610679565b965060ff80881614156103b357600080fd5b87518760010160ff16018901985085806001019650506102e9565b60009450886040519080825280601f01601f191660200182016040528015610400578160200160208202803883390190505b5093508b92505b8a60010183101561060e57600180548490811061042057fe5b600091825260209182902001805460408051601f60026000196101006001871615020190941693909304928301859004850281018501909152818152928301828280156104ae5780601f10610483576101008083540402835291602001916104ae565b820191906000526020600020905b81548152906001019060200180831161049157829003601f168201915b505050505097506104bf8851610679565b96508660f860020a0284868151811015156104d657fe5b9060200101907effffffffffffffffffffffffffffffffffffffffffffffffffffffffffffff1916908160001a905350600190940193600091505b8660ff1682101561058b57816001880360ff160360080260020a885181151561053657fe5b0460f860020a02848681518110151561054b57fe5b9060200101907effffffffffffffffffffffffffffffffffffffffffffffffffffffffffffff1916908160001a9053506001948501949190910190610511565b5060005b87518110156106035787818151811015156105a657fe5b90602001015160f860020a900460f860020a0284868151811015156105c757fe5b9060200101907effffffffffffffffffffffffffffffffffffffffffffffffffffffffffffff1916908160001a9053506001948501940161058f565b600190920191610407565b50919a9950505050505050505050565b6000805460408051602060026001851615610100026000190190941693909304601f8101849004840282018401909252818152929183018282801561029e5780601f106102735761010080835404028352916020019161029e565b600060001982111561068a57600080fd5b6000821015801561069c575060ff8211155b156106a95750600161074a565b60ff821180156106bb575061ffff8211155b156106c85750600261074a565b61ffff82108015906106dd575063ffffffff82105b156106ea5750600461074a565b63ffffffff8210801590610705575067ffffffffffffffff82105b156107125750600861074a565b67ffffffffffffffff821080159061073957506fffffffffffffffffffffffffffffffff82105b156107465750601061074a565b5060205b919050565b828054600181600116156101000203166002900490600052602060002090601f016020900481019282601f1061079057805160ff19168380011785556107bd565b828001600101855582156107bd579182015b828111156107bd5782518255916020019190600101906107a2565b506107c99291506107cd565b5090565b6101fc91905b808211156107c957600081556001016107d35600a165627a7a7230582041e510a4ed05a940e42e3bcc1c46ad109bc8d188262dfcb43a29b5411f4869db0029516d64454a774a47315439727a48764244386936394848754a61526758524b45b10e2d527612073b26eecdfd717e6a320cf44b4afac2b0732d9fcbe2b7fa0cf6",
  "source": "pragma solidity ^0.4.23;\ncontract StringArrayStorage {\n\n    uint8 constant max8 = 2**8 - 1;\n    uint16 constant max16 = 2**16 - 1;\n    uint32 constant max32 = 2**32 - 1;\n    uint64 constant max64 = 2**64 - 1;\n    uint128 constant max128 = 2**128 - 1;\n    uint256 constant  max256 = 2**256 - 1;\n    string public s = \"QmdEJwJG1T9rzHvBD8i69HHuJaRgXRKEQCP7Bh1BVttZbU\";\n    string[] public  arr;\n\n    constructor() public {\n        arr.push(\"QmdEJwJG1T9rzHvBD8i69HHuJaRgXRKEQCP7Bh1BVttZbU\");\n        arr.push(\"QmdEJwJG1T9rzHvBD8i69HHuJaRgXRKEQCP7Bh1BVttZbU\");\n        arr.push(\"QmdEJwJG1T9rzHvBD8i69HHuJaRgXRKEQCP7Bh1BVttZbU\");\n        arr.push(\"QmdEJwJG1T9rzHvBD8i69HHuJaRgXRKEQCP7Bh1BVttZbU\");\n\n    }\n\n    function getArrLength() view public\n    returns (uint256)\n    {\n        return arr.length;\n    }\n\n    function setStrArr(string _value) public\n    {\n        arr.push(_value);\n    }\n\n\n    // Convenient function for out of evm world.\n    function getAsBytes(uint256 _from, uint256 _to)\n    public\n    constant\n    returns (bytes)\n    {\n        require(_from >= 0 && _to >= _from && arr.length >= _to);\n\n\n        uint256 bytesSize = 0;\n        bytes memory elem;\n        uint8 len;\n        // calculate required length of bytes.\n        for (uint256 a = _from; a < _to + 1; a++) {\n            elem = bytes(arr[a]);\n            len = lengthBytes(elem.length);\n            require(len != 255);\n            bytesSize += 1 + len + elem.length;\n        }\n\n        uint256 counter = 0;\n        bytes memory b = new bytes(bytesSize);\n        for (uint256 x = _from; x < _to + 1; x++) {\n            elem = bytes(arr[x]);\n            len = lengthBytes(elem.length);\n\n            // length of next integer specifying string content size.\n            b[counter] = byte(len);\n            counter++;\n\n            // bytes of integer to specify string bytes size\n            // string content it self.\n            for (uint y = 0; y < len; y++) {\n                b[counter] = byte(uint8(elem.length / (2 ** (8 * (len - 1 - y)))));\n                counter++;\n            }\n\n            // string content it self.\n            for (uint z = 0; z < elem.length ; z++) {\n                b[counter] = elem[z];\n                counter++;\n            }\n        }\n        return b;\n    }\n\n    function lengthBytes(uint256 length) pure\n    internal\n    returns\n    (uint8)\n    {\n        // can't handle too long string in this way.\n        require(length <= max256);\n\n        // 8bit\n        if (length >=0 && length <= max8) {\n            return 1;\n        }\n\n        // 16bit\n        if (length > max8 && length <= max16) {\n            return 2;\n        }\n\n        //32 bit\n        if (length >= max16 && length < max32) {\n            return 4;\n        }\n\n        //64bit\n        if (length >= max32 && length < max64) {\n            return 8;\n        }\n\n        //128bit\n        if (length >= max64 && length < max128) {\n            return 16;\n        }\n\n        //256 bit\n        return 32;\n    }\n}",
  "sourcePath": "/Users/chenqilong/Desktop/MUI/contracts/StringArrayStorage.sol",
  "compiler": {
    "name": "solc",
    "version": "0.4.24+commit.e67f0147.Emscripten.clang"
  },
  "schemaVersion": "2.0.1",
  "updatedAt": "2018-10-26T10:02:03.030Z"
}